S00C00004C6162312E73726563D8
S11300000C9434000C9451000C9451000C94510045
S11300100C9451000C9451000C9451000C94510018
S11300200C9451000C9451000C9451000C94510008
S11300300C9451000C9451000C9451000C945100F8
S11300400C9451000C9451000C9451000C945100E8
S11300500C9451000C9451000C9451000C945100D8
S11300600C9451000C94510011241FBECFEFD8E022
S1130070DEBFCDBF11E0A0E0B1E0E6E0FBE002C0EE
S113008005900D92AA33B107D9F721E0AAE3B1E0B4
S113009001C01D92AF33B207E1F70E9445020C94F0
S11300A081050C9400008AB180688AB98BB180689C
S11300B08BB92FEF80E792E0215080409040E1F728
S11300C000C0000008958F929F92AF92BF92CF928A
S11300D0DF92EF92FF920F931F93CF93DF9300D0A1
S11300E000D01F92CDB7DEB7FE01319685E0DF0167
S11300F01D928A95E9F78AB180688AB98BB18F77A6
S11301008BB98FE99CE80197F1F700C000008BB12F
S113011080688BB98AB18F778AB980E090E010C08B
S1130120A5E0AA95F1F7000002968D33910540F001
S11301308AB180688AB98BB180688BB981E0B7C015
S11301404F99EECF80E090E010C0B5E0BA95F1F79A
S1130150000002968536910540F08AB180688AB91C
S11301608BB180688BB981E0A2C04F9BEECF80E059
S113017090E010C025E02A95F1F70000029685363C
S1130180910540F08AB180688AB98BB180688BB9D7
S113019081E08DC04F99EECF60E024C04F9BFECF2D
S11301A0ADE5AA95F1F700004F9B0CC047E050E085
S11301B0481B510921E030E002C0220F331F4A9549
S11301C0E2F7922B4F99FECF8F5F02C090E080E060
S11301D0883020F3E1E0F0E0EC0FFD1FE60FF11DA5
S11301E090836F5F653090F38AB180688AB98BB170
S11301F080688BB98981A82EB12C1A2D00274A81D9
S113020050E0042B152B8B81C82ED12CFC2DEE270E
S11302108C81E82EF12CEE29FF299801ADECBCEC81
S11302200E9488024C01969487949694879496949D
S1130230879480923E01C401880F991F880C991CF1
S1130240880C991C880C991C880E991E0819190988
S113025000933D019F010E9488028C011695079529
S1130260169507951695079500933C01C801880FCC
S1130270991F000F111F000F111F000F111F080FEE
S1130280191FE01BF10BE0933B012D8120933A01F0
S1130290C501840F951F8C0D9D1D8E0D9F1D9927E3
S11302A030E08217930711F083E001C080E00F90E3
S11302B00F900F900F900F90DF91CF911F910F919E
S11302C0FF90EF90DF90CF90BF90AF909F908F9072
S11302D008950F931F93CF93DF93CDB7DEB7649741
S11302E00FB6F894DEBF0FBECDBF90913B01809155
S11302F03C011F929F931F928F9380E091E09F9304
S11303008F938E010F5F1F4F1F930F930E949702CD
S113031081E00E94D20160E080E00E943302C801C3
S11303200E94260290913D0180913E011F929F936D
S11303301F928F9380E191E09F938F931F930F936C
S11303400E94970261E080E00E943302C8010E948B
S113035026022FEF83ED90E3215080409040E1F797
S113036000C000000FB6F894DEBF0FBECDBF649688
S11303700FB6F894DEBF0FBECDBFDF91CF911F91B2
S11303800F91089582E18093B800E9EBF0E0808159
S113039081608083ECEBF0E0808184648083109240
S11303A0BA00089585B988B18E7F88B988B18D7FE8
S11303B088B98AE18A95F1F700C088B1826088B96A
S11303C087EC90E00197F1F700C0000008958FEFEB
S11303D084B987B1836087B98FE295E70197F1F714
S11303E000C0000080E30E94D20187E090E2019700
S11303F0F1F700C0000080E30E94D20187EC90E096
S11304000197F1F700C0000080E30E94D20188E365
S11304100E94D2018CE00E94D20181E00E94D201AC
S1130420089598B1916098B985B988B18D7F88B9DC
S11304308AE18A95F1F700C088B1826088B987ECB7
S113044090E00197F1F700C000000895CF93DF9387
S1130450EC0103C021960E94110288818111FACF18
S1130460DF91CF910895623031F0633031F0613023
S113047031F090E005C094E103C094E501C090E43C
S1130480890F80680E94D201089587B1806387B97B
S11304900E94E7010E947F020E94C2010E94790229
S11304A00E94530081E00E94D2010E946300C82F81
S11304B0811103C00E94690112C0813021F48FE1CF
S11304C091E00E942602C23021F488E291E00E9469
S11304D02602C33021F481E391E00E9426022FEF2B
S11304E083ED90E3215080409040E1F700C000008C
S11304F0D9CF1092800082E080938100089587B163
S1130500846087B987B1877F87B98FEF8AB90895E7
S1130510A29FB001B39FC001A39F700D811D112440
S1130520911DB29F700D811D1124911D0895AEE09F
S1130530B0E0EDE9F2E00C9458050D891E8986E0DF
S11305408C831A8309838FEF9FE79E838D83AE018B
S1130550475E5F4F6F89788DCE0101960E94B90284
S1130560EF81F885E00FF11F10822E96E4E00C94E1
S11305707405ABE0B0E0EFEBF2E00C944A056C01DB
S11305807B018A01FC0117821682838181FFCCC121
S1130590CE0101963C01F6019381F70193FD85910B
S11305A093FF81917F01882309F4BAC1853239F41C
S11305B093FD859193FF81917F01853229F4B601E2
S11305C090E00E94B004E7CF912C212C312CFFE164
S11305D0F315D8F08B3279F038F4803279F0833225
S11305E0A1F4232D20611DC08D3261F0803369F4A4
S11305F0232D216016C0832D8260382EE32DE46004
S11306003E2E2AC0F32DF8601DC037FC2DC020ED0E
S1130610280F2A3040F08E32B9F436FC81C1232DE4
S11306202064322E19C036FE06C08AE0989E200D42
S11306301124922E11C0EAE02E9E200D1124222EA8
S1130640F32DF0623F2E08C08C3621F4832D806890
S1130650382E02C0883641F4F70193FD859193FF4B
S113066081917F018111B3CF982F9F7D9554933051
S113067028F40C5F1F4F9FE399830DC0833631F03C
S1130680833771F0833509F059C021C0F8018081A6
S113069089830E5F1F4F88248394912C530113C0C8
S11306A02801F2E04F0E511CF801A080B18036FE03
S11306B003C0692D70E002C06FEF7FEFC5010E9497
S11306C0A5044C018201F32DFF773F2E16C02801AB
S11306D022E0420E511CF801A080B18036FE03C016
S11306E0692D70E002C06FEF7FEFC5010E949A048C
S11306F04C01F32DF0683F2E820133FC1BC0822D88
S113070090E088169906B0F4B60180E290E00E9469
S1130710B0042A94F4CFF50137FC859137FE81911A
S11307205F01B60190E00E94B00421102A9421E0F8
S1130730821A91088114910471F7E8C0843611F08B
S1130740893641F5F80137FE07C0608171818281E5
S113075093810C5F1F4F08C060817181072E000CCC
S1130760880B990B0E5F1F4FF32DFF763F2E97FFDB
S113077009C090958095709561957F4F8F4F9F4FDD
S1130780F0683F2E2AE030E0A3010E94EC04882E9A
S1130790861845C0853731F4232D2F7EB22E2AE0EA
S11307A030E025C0932D997FB92E8F36C1F018F40F
S11307B0883579F0B5C0803719F0883721F0B0C09A
S11307C0E92FE061BE2EB4FE0DC0FB2DF460BF2EF8
S11307D009C034FE0AC0292F2660B22E06C028E0C4
S11307E030E005C020E130E002C020E132E0F80151
S11307F0B7FE07C060817181828193810C5F1F4FB6
S113080006C06081718180E090E00E5F1F4FA301FC
S11308100E94EC04882E8618FB2DFF773F2E36FEAF
S11308200DC0232D2E7FA22E891458F434FE0BC044
S113083032FC09C0832D8E7EA82E05C0B82CA32CB3
S113084003C0B82C01C0B92CA4FE0FC0FE01E80DF2
S1130850F11D8081803321F49A2D997EA92E09C03F
S1130860A2FE06C0B394B39404C08A2D867809F01E
S1130870B394A3FC11C0A0FE06C0B21488F4280CE3
S1130880922C9B180EC0B21460F4B60180E290E082
S11308900E94B004B394F7CFB21418F42B1802C01A
S11308A0982C212CA4FE10C0B60180E390E00E9495
S11308B0B004A2FE17C0A1FC03C088E790E002C008
S11308C088E590E0B6010CC08A2D867859F0A1FE27
S11308D002C08BE201C080E2A7FC8DE2B60190E089
S11308E00E94B004891438F4B60180E390E00E94B9
S11308F0B0049A94F7CF8A94F301E80DF11D808136
S1130900B60190E00E94B0048110F5CF222009F4D2
S113091042CEB60180E290E00E94B0042A94F6CF61
S1130920F6018681978102C08FEF9FEF2B96E2E15B
S11309300C946605FC010590615070400110D8F7D5
S1130940809590958E0F9F1F0895FC016150704013
S113095001900110D8F7809590958E0F9F1F0895F0
S11309600F931F93CF93DF93FB01238121FD03C0DA
S11309708FEF9FEF2CC022FF16C046815781248140
S113098035814217530744F4A081B1819D012F5F43
S11309903F4F318320838C93268137812F5F3F4FD4
S11309A03783268314C08B01EC01FB010084F1859D
S11309B0E02D0995892BE1F6D80116968D919C912D
S11309C01797019617969C938E931697CE01DF91F5
S11309D0CF911F910F910895FA01AA27283051F160
S11309E0203181F1E8946F936E7F6E5F7F4F8F4F5C
S11309F09F4FAF4FB1E03ED0B4E03CD0670F781FBB
S1130A00891F9A1FA11D680F791F8A1F911DA11D9F
S1130A106A0F711D811D911DA11D20D009F46894D8
S1130A203F912AE0269F11243019305D3193DEF680
S1130A30CF010895462F4770405D4193B3E00FD036
S1130A40C9F7F6CF462F4F70405D4A3318F0495D21
S1130A5031FD4052419302D0A9F7EACFB4E0A69504
S1130A609795879577956795BA95C9F70097610526
S1130A70710508959B01AC010A2E0694579547957C
S1130A8037952795BA95C9F7620F731F841F951F71
S1130A90A01D08952F923F924F925F926F927F9282
S1130AA08F929F92AF92BF92CF92DF92EF92FF927A
S1130AB00F931F93CF93DF93CDB7DEB7CA1BDB0B26
S1130AC00FB6F894DEBF0FBECDBF09942A883988CB
S1130AD048885F846E847D848C849B84AA84B984D2
S1130AE0C884DF80EE80FD800C811B81AA81B981DE
S1130AF0CE0FD11D0FB6F894DEBF0FBECDBFED01F2
S1090B000895F894FFCFF4
S1130B062054656D703A2025642C256420432E00FC
S1130B162048756D3A2025642C256420252E002056
S1130B266572726F72203100206572726F722032A4
S10D0B3600206572726F7220330014
S9030000FC
