S00C00004C6162312E73726563D8
S11300000C94B8000C94D5000C94D5000C94D50035
S11300100C94D5000C94D5000C94D5000C94D50008
S11300200C94D5000C94D5000C94D5000C94D500F8
S11300300C94D5000C94D5000C94D5000C94D500E8
S11300400C94D5000C94D5000C94D5000C94D500D8
S11300500C94D5000C94D5000C94D5000C94D500C8
S11300600C94D5000C94D500A104A604AB04B004F0
S1130070B504BA04BF0400407A10F35A00A0724ECB
S113008018090010A5D4E80000E87648170000E439
S11300900B54020000CA9A3B000000E1F505000081
S11300A080969800000040420F000000A0860100E6
S11300B00000102700000000E803000000006400B6
S11300C0000000000A000000000001000000000021
S11300D02C76D888DC674F0823DFC1DFAE59E1B145
S11300E0B796E5E3E453C63AE651997696E8E6C254
S11300F08426EB898C9B62ED407C6FFCEFBC9C9F5B
S113010040F2BAA56FA5F490055A2AF75C936B6C7C
S1130110F9676DC11BFCE0E40D47FEF520E6B50070
S1130120D0ED902E0300943577050080841E0800DE
S113013000204E0A000000C80C333333330F986E8E
S113014012831141EF8D2114893BE65516CFFEE64B
S1130150DB18D1844B381BF77C1D901DA4BBE42411
S1130160203284725E228100C9F124ECA1E53D278E
S113017011241FBECFEFD8E0DEBFCDBF11E0A0E059
S1130180B1E0E0EFF9E102C005900D92A23EB107A3
S1130190D9F722E0A2EEB1E001C01D92A530B2076A
S11301A0E1F70E946C030C94F60C0C9400008AB1E5
S11301B080688AB98BB180688BB92FEF80E792E0B1
S11301C0215080409040E1F700C0000008958F92D4
S11301D09F92AF92BF92CF92DF92EF92FF920F93D2
S11301E01F93CF93DF9300D000D01F92CDB7DEB71B
S11301F0FE01319685E0DF011D928A95E9F78AB107
S113020080688AB98BB18F778BB98FE99CE80197A5
S1130210F1F700C000008BB180688BB98AB18F7789
S11302208AB980E090E010C0A5E0AA95F1F700003B
S113023002968D33910540F08AB180688AB98BB1FA
S113024080688BB981E0B7C04F99EECF80E090E031
S113025010C0B5E0BA95F1F7000002968536910515
S113026040F08AB180688AB98BB180688BB981E02B
S1130270A2C04F9BEECF80E090E010C025E02A950D
S1130280F1F7000002968536910540F08AB1806846
S11302908AB98BB180688BB981E08DC04F99EECF5C
S11302A060E024C04F9BFECFADE5AA95F1F70000B6
S11302B04F9B0CC047E050E0481B510921E030E05F
S11302C002C0220F331F4A95E2F7922B4F99FECFBB
S11302D08F5F02C090E080E0883020F3E1E0F0E03E
S11302E0EC0FFD1FE60FF11D90836F5F653090F3F7
S11302F08AB180688AB98BB180688BB98981A82E4C
S1130300B12C1A2D00274A8150E0042B152B8B8128
S1130310C82ED12CFC2DEE278C81E82EF12CEE2951
S1130320FF299801ADECBCEC0E94AB074C019694FC
S1130330879496948794969487948092E601C40156
S1130340880F991F880C991C880C991C880C991C7F
S1130350880E991E081919090093E5019F010E944E
S1130360AB078C0116950795169507951695079575
S11303700093E401C801880F991F000F111F000F9B
S1130380111F000F111F080F191FE01BF10BE09341
S1130390E3012D812093E201C501840F951F8C0D8B
S11303A09D1D8E0D9F1D992730E08217930711F034
S11303B083E001C080E00F900F900F900F900F909A
S11303C0DF91CF911F910F91FF90EF90DF90CF902D
S11303D0BF90AF909F908F9008950F931F93CF93EA
S11303E0DF93CDB7DEB764970FB6F894DEBF0FBEC8
S11303F0CDBF81E00E94F9020E94E700182F60E05F
S113040080E00E945A0380E091E00E944D031111A4
S113041037C061E080E00E945A039091E30180912B
S1130420E4011F929F931F928F9385E191E09F9324
S11304308F938E010F5F1F4F1F930F930E94DA0754
S1130440C8010E944D0362E080E00E945A0390912B
S1130450E5018091E6011F929F931F928F9385E29D
S113046091E09F938F931F930F930E94DA07C80123
S11304700E944D030FB6F894DEBF0FBECDBF1EC061
S1130480123061F0133091F01130C1F461E080E07A
S11304900E945A0384E391E00E944D0361E080E0EE
S11304A00E945A038DE391E00E944D0361E080E0D5
S11304B00E945A0386E491E00E944D0363E080E0C9
S11304C00E945A0380E091E00E944D039FEF23EDC8
S11304D080E3915020408040E1F700C00000649622
S11304E00FB6F894DEBF0FBECDBFDF91CF911F9141
S11304F00F91089582E18093B800E9EBF0E08081E8
S113050081608083ECEBF0E08081846480831092CE
S1130510BA00089584EA8093BC008091BC008823CB
S1130520E4F78091B900887F883011F480E0089561
S113053081E0089584EA8093BC008091BC00882304
S1130540E4F78091B900887F803111F480E0089548
S113055081E0089580FD02C098E101C090E4809399
S1130560BB0084E88093BC008091BC008823E4F73E
S11305708091B900887F981302C080E0089581E0DB
S113058008958093BB0084E88093BC008091BC00F4
S11305908823E4F78091B900887F883211F081E0E4
S11305A0089580E0089584EC8093BC008091BC00A1
S11305B08823E4F78091B900887F803519F480910D
S11305C0BB0008958EE7089584E88093BC00809171
S11305D0BC008823E4F78091B900887F883519F43A
S11305E08091BB0008958EE7089584E98093BC0050
S11305F0089585B988B18E7F88B988B18D7F88B90F
S11306008AE18A95F1F700C088B1826088B987ECE5
S113061090E00197F1F700C0000008958FEF84B9CE
S113062087B1836087B98FE295E70197F1F700C03E
S1130630000080E30E94F90287E090E20197F1F75D
S113064000C0000080E30E94F90287EC90E001976B
S1130650F1F700C0000080E30E94F90288E30E94E1
S1130660F9028CE00E94F90281E00E94F9020895E7
S113067098B1916098B985B988B18D7F88B98AE1BC
S11306808A95F1F700C088B1826088B987EC90E060
S11306900197F1F700C000000895CF93DF93EC01B8
S11306A003C021960E94380388818111FACFDF911B
S11306B0CF910895623031F0633031F0613031F020
S11306C090E005C094E103C094E501C090E4890F73
S11306D080680E94F902089587B1806387B90E94F7
S11306E00E030E940F050E947A020E9409050E94CF
S11306F0D7000E94C9040E94BA03892B69F181E0E2
S11307000E94F90260E080E00E945A0380E091E0D8
S11307100E944D0361E080E00E945A038FE491E05F
S11307200E944D0362E080E00E945A0384E691E057
S11307300E944D0363E080E00E945A0380E091E050
S11307400E944D032FEF83ED90E3215080409040B1
S1130750E1F700C0000004C00E944F050E94ED01B3
S11307602FEF83ED90E3215080409040E1F700C0EB
S11307700000BFCF4E9B03C081E090E0089580E06D
S113078090E00895CF930E948A02813019F40E9468
S1130790F50237C080ED0E94AA02813019F40E944C
S11307A0F5022FC080E00E94C102813019F40E943A
S11307B0F50227C00E949A02813019F40E94F502C2
S11307C020C081ED0E94AA028130B1F40E94F5029A
S11307D018C0C63019F40E94E40202C00E94D30279
S11307E08E3719F40E94F5020CC0EC2FF0E0E951A9
S11307F0FE4F8083CF5F01C0C0E0C73050F30E943A
S1130800F502CF9108950E94C203EEEEF1E0118645
S113081080E28087A7EEB1E08C91982F9F7090635F
S11308209783807790E0959587959595879595958D
S1130830879595958795806386832AE3258311960A
S11308408C911197982F9F7090639483807790E098
S1130850959587959595879595958795959587957C
S113086080638383228312968C91982F9F70906368
S11308709183807390E09595879595958795959547
S11308808795959587958063808308950E94C20318
S1130890E9EFF1E080E28387A7EEB1E016968C9150
S11308A01697982F9F709063918782958F708063BD
S11308B0808780E3878382E386832FE225831596EE
S11308C08C911597982F9F7090639483807190E01A
S11308D095958795959587959595879595958795FC
S11308E080638383228314968C91982F9F709063E6
S11308F09183807390E095958795959587959595C7
S11309008795959587958063808308950E94030455
S11309108EEE91E00E944D0308950E94460489EFF3
S113092091E00E944D030895E091EA018E2F90E03A
S1130930FC013197E730F10538F5EC5CFF4F0C947E
S1130940A5078AE791E00E944D03089582E891E0AB
S11309500E944D0308958AE891E00E944D03089592
S113096083E991E00E944D0308958EE991E00E948D
S11309704D03089588EA91E00E944D03089581EBA8
S113098091E00E944D0308958BEB91E00E944D038A
S11309900895CF93DF9381E00E94F90260E080E044
S11309A00E945A0380E091E00E944D0361E080E0E0
S11309B00E945A030E948D048FEA91E00E944D0325
S11309C00E94940462E080E00E945A030E9486041C
S11309D063E080E00E945A0380E091E00E944D03AE
S11309E0C0E0D0E010C062E080E00E945A030E94A0
S11309F086042FEF84E39CE0215080409040E1F78F
S1130A0000C000002196CA30D1056CF3DF91CF916C
S1130A1008951092800082E080938100089587B148
S1130A20846087B987B1877F87B98FEF8AB90895C2
S1130A30339BFECFE4E8F0E0118210822081318103
S1130A403399FECF8091840090918500821B930B93
S1130A50089588B1846088B988E28A95F1F788B1ED
S1130A608B7F88B90E941805BC0180E090E00E9449
S1130A70AA0620E030E048E652E40E9438060895D1
S1130A8028E834EF43E85FE30E9438079B01AC0198
S1130A9063E87FE28EEC92E40E94CB0508958F9286
S1130AA09F92AF92BF92CF92DF92EF92FF920F93F9
S1130AB01F93CF93DF93CDB7DEB764970FB6F89447
S1130AC0DEBF0FBECDBF0E9429056B017C010E94D1
S1130AD040054B015C0181E00E94F90260E080E086
S1130AE00E945A0380E091E00E944D038E010F5F43
S1130AF01F4F22E030E045E050E0C701B6010E94FC
S1130B00BA0761E080E00E945A0384EC91E00E94FD
S1130B104D03C8010E944D0380ED91E00E944D03F6
S1130B2022E030E045E050E0C501B4010E94BA077C
S1130B3062E080E00E945A0384ED91E00E944D033C
S1130B40C8010E944D038FED91E00E944D0363E0C4
S1130B5080E00E945A0380E091E00E944D032FEF51
S1130B6087EA91E6215080409040E1F700C0000000
S1130B7064960FB6F894DEBF0FBECDBFDF91CF9160
S1130B801F910F91FF90EF90DF90CF90BF90AF90A7
S1130B909F908F9008955058BB27AA270E94E30581
S1130BA00C94FE060E94F00638F00E94F70620F02E
S1130BB039F49F3F19F426F40C94ED060EF4E095F5
S1130BC0E7FB0C94E706E92F0E940F0758F3BA17C6
S1130BD0620773078407950720F079F4A6F50C944F
S1130BE031070EF4E0950B2EBA2FA02D0B01B9019D
S1130BF090010C01CA01A0011124FF27591B99F08F
S1130C00593F50F4503E68F11A16F040A22F232F9A
S1130C10342F4427585FF3CF469537952795A795EA
S1130C20F0405395C9F77EF41F16BA0B620B730B91
S1130C30840BBAF09150A1F0FF0FBB1F661F771F02
S1130C40881FC2F70EC0BA0F621F731F841F48F4B7
S1130C50879577956795B795F7959E3F08F0B0CF40
S1130C609395880F08F09927EE0F97958795089527
S1130C700E944C060C94FE060E94F70658F00E944F
S1130C80F00640F029F45F3F29F00C94E706511177
S1130C900C9432070C94ED060E940F0768F3992315
S1130CA0B1F3552391F3951B550BBB27AA27621764
S1130CB07307840738F09F5F5F4F220F331F441F71
S1130CC0AA1FA9F335D00E2E3AF0E0E832D09150A5
S1130CD05040E695001CCAF72BD0FE2F29D0660F92
S1130CE0771F881FBB1F261737074807AB07B0E8D5
S1130CF009F0BB0B802DBF01FF2793585F4F3AF0DB
S1130D009E3F510578F00C94E7060C9432075F3F40
S1130D10E4F3983ED4F3869577956795B795F79560
S1130D209F5FC9F7880F911D9695879597F9089548
S1130D30E1E0660F771F881FBB1F621773078407E4
S1130D40BA0720F0621B730B840BBA0BEE1F88F7F3
S1130D50E0950895E89409C097FB3EF4909580953A
S1130D60709561957F4F8F4F9F4F9923A9F0F92F6D
S1130D7096E9BB279395F695879577956795B795EB
S1130D80F111F8CFFAF4BB0F11F460FF1BC06F5FD1
S1130D907F4F8F4F9F4F16C0882311F096E911C0E3
S1130DA0772321F09EE8872F762F05C0662371F004
S1130DB096E8862F70E060E02AF09A95660F771F18
S1130DC0881FDAF7880F9695879597F9089597F90C
S1130DD09F6780E870E060E008959FEF80EC0895DD
S1130DE000240A9416161706180609060895002406
S1130DF00A9412161306140605060895092E039480
S1130E00000C11F4882352F0BB0F40F4BF2B11F4F3
S1130E1060FF04C06F5F7F4F8F4F9F4F089557FD52
S1130E209058440F551F59F05F3F71F04795880F54
S1130E3097FB991F61F09F3F79F0879508951216EB
S1130E4013061406551FF2CF4695F1DF08C0161697
S1130E5017061806991FF1CF869571056105089448
S1130E600895E894BB2766277727CB0197F908955F
S1130E700E944B070C94FE060E94F00638F00E9474
S1130E80F70620F0952311F00C94E7060C94ED0678
S1130E9011240C9432070E940F0770F3959FC1F33D
S1130EA0950F50E0551F629FF001729FBB27F00D14
S1130EB0B11D639FAA27F00DB11DAA1F649F662769
S1130EC0B00DA11D661F829F2227B00DA11D621FB8
S1130ED0739FB00DA11D621F839FA00D611D221F72
S1130EE0749F3327A00D611D231F849F600D211D56
S1130EF0822F762F6A2F11249F5750409AF0F1F0D9
S1130F0088234AF0EE0FFF1FBB1F661F771F881F41
S1130F1091505040A9F79E3F510580F00C94E7068C
S1130F200C9432075F3FE4F3983ED4F386957795AB
S1130F306795B795F795E7959F5FC1F7FE2B880FE7
S1130F40911D9695879597F90895EE0FFF1F0590CB
S1130F50F491E02D0994A29FB001B39FC001A39F17
S1130F60700D811D1124911DB29F700D811D1124DE
S1130F70911D0895EF920F931F93CF93DF93E80190
S1130F8047FD02C034E001C034E1042E000C550BCF
S1130F9057FF03C0519541955109E32E022F242F89
S1130FA0AE010E94DD09CE01DF91CF911F910F9117
S1130FB0EF900895AEE0B0E0E0EEF7E00C94CD0CD5
S1130FC00D891E8986E08C831A8309838FEF9FE73E
S1130FD09E838D83AE01475E5F4F6F89788DCE010E
S1130FE001960E94FC07EF81F885E00FF11F108243
S1130FF02E96E4E00C94E90CABE0B0E0E2E0F8E01B
S11310000C94BF0C6C017B018A01FC0117821682CF
S1131010838181FFCCC1CE0101963C01F60193810D
S1131020F70193FD859193FF81917F01882309F452
S1131030BAC1853239F493FD859193FF81917F0183
S1131040853229F4B60190E00E94250CE7CF912C5B
S1131050212C312CFFE1F315D8F08B3279F038F4E0
S1131060803279F08332A1F4232D20611DC08D32AA
S113107061F0803369F4232D216016C0832D8260D2
S1131080382EE32DE4603E2E2AC0F32DF8601DC0F7
S113109037FC2DC020ED280F2A3040F08E32B9F4F1
S11310A036FC81C1232D2064322E19C036FE06C0C1
S11310B08AE0989E200D1124922E11C0EAE02E9E03
S11310C0200D1124222EF32DF0623F2E08C08C3601
S11310D021F4832D8068382E02C0883641F4F7014C
S11310E093FD859193FF81917F018111B3CF982F57
S11310F09F7D9554933028F40C5F1F4F9FE3998391
S11311000DC0833631F0833771F0833509F059C04F
S113111021C0F801808189830E5F1F4F8824839446
S1131120912C530113C02801F2E04F0E511CF80119
S1131130A080B18036FE03C0692D70E002C06FEF5D
S11311407FEFC5010E941A0C4C018201F32DFF7739
S11311503F2E16C0280122E0420E511CF801A08047
S1131160B18036FE03C0692D70E002C06FEF7FEFDF
S1131170C5010E940F0C4C01F32DF0683F2E820133
S113118033FC1BC0822D90E088169906B0F4B6019A
S113119080E290E00E94250C2A94F4CFF50137FCFC
S11311A0859137FE81915F01B60190E00E94250C84
S11311B021102A9421E0821A91088114910471F774
S11311C0E8C0843611F0893641F5F80137FE07C0CE
S11311D060817181828193810C5F1F4F08C060819F
S11311E07181072E000C880B990B0E5F1F4FF32D96
S11311F0FF763F2E97FF09C0909580957095619575
S11312007F4F8F4F9F4FF0683F2E2AE030E0A301BD
S11312100E94610C882E861845C0853731F4232D31
S11312202F7EB22E2AE030E025C0932D997FB92E6F
S11312308F36C1F018F4883579F0B5C0803719F0CD
S1131240883721F0B0C0E92FE061BE2EB4FE0DC096
S1131250FB2DF460BF2E09C034FE0AC0292F26607E
S1131260B22E06C028E030E005C020E130E002C024
S113127020E132E0F801B7FE07C06081718182810C
S113128093810C5F1F4F06C06081718180E090E004
S11312900E5F1F4FA3010E94610C882E8618FB2D40
S11312A0FF773F2E36FE0DC0232D2E7FA22E8914EC
S11312B058F434FE0BC032FC09C0832D8E7EA82E58
S11312C005C0B82CA32C03C0B82C01C0B92CA4FEB3
S11312D00FC0FE01E80DF11D8081803321F49A2DA9
S11312E0997EA92E09C0A2FE06C0B394B39404C08B
S11312F08A2D867809F0B394A3FC11C0A0FE06C021
S1131300B21488F4280C922C9B180EC0B21460F40A
S1131310B60180E290E00E94250CB394F7CFB2149A
S113132018F42B1802C0982C212CA4FE10C0B6016E
S113133080E390E00E94250CA2FE17C0A1FC03C02C
S113134088E790E002C088E590E0B6010CC08A2DE1
S1131350867859F0A1FE02C08BE201C080E2A7FCAE
S11313608DE2B60190E00E94250C891438F4B60190
S113137080E390E00E94250C9A94F7CF8A94F301BD
S1131380E80DF11D8081B60190E00E94250C8110CA
S1131390F5CF222009F442CEB60180E290E00E940B
S11313A0250C2A94F6CFF6018681978102C08FEF2F
S11313B09FEF2B96E2E10C94DB0CA9E0B0E0E3EEA6
S11313C0F9E00C94C50C6A01122FB02E2BE3201700
S11313D020F0FF24F394F00E02C02CE3F22E0F2D24
S11313E027E0AE014F5F5F4F0E94370BBC0149817C
S11313F0842F8970813031F0E1FC06C0E0FE06C024
S113140090E205C09DE203C09BE201C090E05E2D26
S1131410507143FF3CC0911102C083E001C084E0DD
S1131420811718F4212F281B01C020E051110BC093
S1131430F601822F30E2882319F031938150FBCFDB
S1131440C20ED11C20E0992329F0D6019C93F60109
S113145031966F01C6010396E2FE0AC03EE4D6014E
S11314603C9341E411964C93119712963C9306C019
S11314703EE6F601308341E641833283FC01322F9C
S113148040E2332309F442C041933150FACF42FF82
S113149044C0911102C083E001C084E0811718F4B4
S11314A0212F281B01C020E051110BC0F601822F0F
S11314B030E2882319F031938150FBCFC20ED11C46
S11314C020E0992329F0D6019C93F60131966F010F
S11314D0C6010396E2FE0BC039E4D6013C933EE418
S11314E011963C93119736E412963C9307C039E663
S11314F0F60130833EE6318336E63283FC01322F37
S113150040E2332319F041933150FBCFFC01E20F49
S1131510F11D10828EEF9FEFA6C021E030E0911103
S113152002C020E030E0161617061CF4FB013196C9
S113153002C0E1E0F0E02E0F3F1FBB2021F0EB2DB5
S1131540F0E0319602C0E0E0F0E02E0F3F1FE12F03
S1131550F0E02E173F071CF4121B212F01C020E0DE
S11315608E2D887159F4F601822F30E2882319F008
S113157031938150FBCFC20ED11C20E0992329F076
S1131580D6019C93F60131966F0151110BC0F601FF
S1131590822F90E3882319F091938150FBCFC20EE0
S11315A0D11C20E00F2D060F9A81342F307144FF97
S11315B003C0913309F40150101624F4093018F0D3
S11315C008E001C001E0AB0177FF02C040E050E059
S11315D0FB01E41BF50BA1E0B0E0AC0FBD1FEA0F6B
S11315E0FB1F8EE2A82E4B01801A91080B2D10E0F0
S11315F01195019511094F3FBFEF5B0721F4D60107
S1131600AC9211966D01641775072CF0841695063B
S113161014F4818101C080E3415051093196D6010F
S113162011967D014017510724F0D6018C93670170
S1131630E2CF6417750739F4963320F4953319F41F
S1131640311101C081E3F6018083F701822F90E21A
S1131650882319F091938150FBCFF701E20FF11D1C
S1131660108280E090E02996ECE00C94E10C2830A4
S113167008F027E03327DA01990F311D87FD9160C7
S113168000966105710539F432602E5F3D9330E3B5
S11316902A95E1F708959F3F30F080387105610580
S11316A009F03C5F3C5F3D93913008F08068911DE8
S11316B0DF93CF931F930F93FF92EF92192F987F8D
S11316C09695E92F96959695E90FFF27E053FF4FDE
S11316D099273327EE24FF24A701E70105900894F6
S11316E0079428F4360FE71EF81E491F511D660F94
S11316F0771F881F991F0694A1F70590079428F473
S1131700E70EF81E491F561FC11D770F881F991F2A
S1131710661F0694A1F70590079428F4F80E491F54
S1131720561FC71FD11D880F991F661F771F069468
S1131730A1F70590079420F4490F561FC71FD81F1F
S1131740990F661F771F881F0694A9F78491109537
S1131750177041F0D695C79557954795F794E79438
S11317601A95C1F7E6E7F0E0689415901591359164
S11317706591959105907FE27395E118F10A430B09
S1131780560BC90BD009C0F7E10CF11E431F561FBD
S1131790C91FD01D7EF4703311F48A95E6CFE89406
S11317A0015030F0080F0AF40027021708F4202F24
S11317B02395022F7A3328F079E37D932A95E9F76C
S11317C010C07D932A9589F6069497956795379569
S11317D017951794E118F10A430B560BC90BD0095E
S11317E098F023957E9173957A3308F070E37C9397
S11317F02013B8F77E9170617D9330F0839571E387
S11318007D9370E32A95E1F71124EF90FF900F91F7
S11318101F91CF91DF91992787FD90950895FC0141
S11318200590615070400110D8F7809590958E0F07
S11318309F1F0895FC016150704001900110D8F77A
S1131840809590958E0F9F1F08950F931F93CF93AC
S1131850DF93FB01238121FD03C08FEF9FEF2CC099
S113186022FF16C0468157812481358142175307D0
S113187044F4A081B1819D012F5F3F4F31832083C8
S11318808C93268137812F5F3F4F3783268314C083
S11318908B01EC01FB010084F185E02D0995892B76
S11318A0E1F6D80116968D919C911797019617969B
S11318B09C938E931697CE01DF91CF911F910F9138
S11318C00895FA01AA27283051F1203181F1E894D2
S11318D06F936E7F6E5F7F4F8F4F9F4FAF4FB1E01F
S11318E03ED0B4E03CD0670F781F891F9A1FA11D1A
S11318F0680F791F8A1F911DA11D6A0F711D811D1B
S1131900911DA11D20D009F468943F912AE0269FDF
S113191011243019305D3193DEF6CF010895462F3E
S11319204770405D4193B3E00FD0C9F7F6CF462F1F
S11319304F70405D4A3318F0495D31FD4052419388
S113194002D0A9F7EACFB4E0A69597958795779545
S11319506795BA95C9F700976105710508959B01CC
S1131960AC010A2E06945795479537952795BA9555
S1131970C9F7620F731F841F951FA01D08952F922E
S11319803F924F925F926F927F928F929F92AF920B
S1131990BF92CF92DF92EF92FF920F931F93CF9358
S11319A0DF93CDB7DEB7CA1BDB0B0FB6F894DEBFEF
S11319B00FBECDBF09942A88398848885F846E8415
S11319C07D848C849B84AA84B984C884DF80EE805F
S11319D0FD800C811B81AA81B981CE0FD11D0FB668
S11319E0F894DEBF0FBECDBFED010895F894FFCF8C
S11319F0202D2D2D2D2D2D2D2D2D2D2D2D2D2D2D20
S1131A002D2D2D2D002054656D703A2025642C2534
S1131A106420432E002048756D3A2025642C2564EB
S1131A2020252E00204552524F522031002045528D
S1131A30524F52203200204552524F522033002A36
S1131A402A2A2A426F7465204162696572746F2A7A
S1131A502A2A2A002A2A4573706572616E646F20EF
S1131A604369657272652A2A2A0053756E64617926
S1131A7020004D6F6E646179200054756573646154
S1131A807920005765646E65736461792000546839
S1131A9075727364617920004672696461792020EB
S1131AA00053617475726461792000556E6B6E6FBA
S1131AB0776E20002044697374616E63653A200078
S1131AC020636D002046696C6C696E673A200020C3
S1051AD02500EB
S9030000FC
