S00C0000524A34352E7372656313
S11300000C9457000C9474000C9474000C947400B9
S11300100C9474000C9474000C9474000C9474008C
S11300200C9474000C9474000C9474000C9474007C
S11300300C9474000C9474000C9474000C9474006C
S11300400C9474000C9474000C9474000C9474005C
S11300500C9474003C68746D6C3E3C626F64793E31
S11300603C68313E497420576F726B73213C2F6892
S1130070313E3C2F626F64793E3C2F68746D6C3E58
S113008000485454502F312E3020323030204F4B02
S11300900D0A436F6E74656E742D547970653A2041
S11300A0746578742F68746D6C0D0A0D0A00112440
S11300B01FBECFE5D8E0DEBFCDBF10E0A0E6B0E0C4
S11300C0EEEBFCE002C005900D92AE37B107D9F714
S11300D024E0AEE7B0E001C01D92A931B207E1F718
S11300E00E9405030C945D060C94000088B38F7E77
S11300F088BB089588B3806188BB0895779BFECF41
S11301000895CF93DF93C82FD62F0E9476008D2FAA
S11301108F71C82BCFB90E947E001FB80E947E0049
S1130120DD231CF41FB80E947E000E947A008FB168
S1130130DF91CF9108951F93CF93DF93C82FD62FCC
S1130140142F0E947600DF71CD2BCFB90E947E0060
S11301501FB90E947E000E947A00DF91CF911F9107
S113016008950F931F93CF93DF93EC018B010E94AB
S113017076008AE38FB90E947E0008C021971FB8D9
S11301800E947E008FB1F80181938F012097B1F70F
S1130190F80110820E947A00DF91CF911F910F9194
S11301A008950F931F93CF93DF93EC018B010E946B
S11301B076008AE78FB90E947E0007C02197F80174
S11301C081918F018FB90E947E002097B9F70E9418
S11301D07A00DF91CF911F910F9108951F93CF93D0
S11301E0DF93182F1076C12FD0E08091800090E02B
S11301F0C817D907B1F043E06FE180EA0E949B0081
S1130200AE015595479555954795559547955595FF
S11302104795559547956FE180E80E949B001093A0
S11302208000DF91CF911F910895CF93C82F0E9432
S1130230EE006C2F80E00E948100CF910895CF934F
S1130240DF93C82FD62F0E94EE004D2F6C2F80E431
S11302500E949B00DF91CF910895CF93DF93D62F17
S1130260C72F682F84ED0E941F016D2F86ED0E9419
S11302701F016C2F87ED0E941F0103C085E08A9542
S1130280F1F78AEE0E94150180FDF8CFDF91CF913E
S11302900895682F677085E70E941F010895CF9322
S11302A0DF93EC0187B3806187BB0E947A0087B338
S11302B0806A87BB87B38F7B87BB88B38F7D88BBFE
S11302C088B38F7788BB80E58DB98EB181608EB994
S11302D04FEF60E08FEF0E949B008DEC8A95F1F761
S11302E010927F0010927E0060E088E00E941F015F
S11302F060E089E00E941F0160E08CE00E941F0121
S113030060E08DE00E941F016EEF8AE00E941F01F1
S113031069E18BE00E941F016FEF84E00E941F01DE
S113032069E185E00E941F016FEF86E00E941F01D2
S11303306FE187E00E941F0160EB88E30E941F01C8
S11303406FE388E20E941F0160E389E20E941F01BB
S113035069EF80E30E941F0167EF81E30E941F01A0
S11303606DE080EC0E941F0160E081EC0E941F019F
S113037042E362EC80E80E949B0062E186EC0E940A
S11303801F016CE087EC0E941F0162E184EC0E9473
S11303901F016CED8AEC0E941F0165E08BEC0E944A
S11303A01F01688184EE0E941F01698185EE0E940D
S11303B01F016A8182EE0E941F016B8183EE0E94FD
S11303C01F016C8180EE0E941F016D8181EE0E94ED
S11303D01F0160E071E080E10E942D018FE10E9425
S11303E0EE0040EC6BE180E80E949B0044E06FE18A
S11303F080E80E949B00DF91CF910895CF92DF9215
S1130400EF92FF920F931F93CF93DF93EC017B0145
S113041089E30E941501882309F484C060917E0059
S113042080E00E941F0160917F0081E00E941F0113
S113043060E08AE30E94810090E090937F008093C3
S11304407E0060E08AE30E94810090E0982F882774
S113045020917E0030917F00822B932B90937F001C
S113046080937E0060E08AE30E948100C82ED12C34
S113047060E08AE30E948100082F10E0102F00271B
S11304800C291D290450110960E08AE30E948100AF
S1130490C82ED12C60E08AE30E94810090E0982F5E
S11304A088278C299D292197C017D10708F0E801D6
S11304B087FF05C0B701CE010E94B10002C0C0E0B1
S11304C0D0E060917E008CE00E941F0160917F006B
S11304D08DE00E941F0160917E0070917F00CB012E
S11304E001978F3F994148F06EEF8CE00E941F0105
S11304F069E18DE00E941F010DC061508CE00E94F3
S11305001F0180917E0090917F000197692F8DE0FB
S11305100E941F0140E46EE180E80E949B008C2F42
S11305209D2F02C080E090E0DF91CF911F910F9149
S1130530FF90EF90DF90CF9008950F931F93CF9388
S1130540DF93EC018B010FC08CE10E94150181FF48
S11305500AC040E86FE180E80E949B0040E86FE138
S113056080EA0E949B006FE180E00E94810083FD8D
S1130570EBCF6FEF82E00E941F0169E183E00E94EC
S11305801F016C2F615086E00E941F01CE01815033
S1130590964E692F87E00E941F0140E060E08AE7E1
S11305A00E949B00B801CE010E94D10048E06FE197
S11305B080E80E949B00DF91CF911F910F910895D5
S11305C041E850E060E070E083E990E00E94CC05EF
S11305D0909392008093910044E550E0BC0183E93C
S11305E090E00E94CC05909392008093910008952E
S11305F083E990E00E94DE05609191007091920081
S113060083E990E00E9410060895C2E38C2F8A9536
S1130610F1F784E690E00E944F0182E00E944901D4
S11306208C2F8A95F1F766E774E084E10E942D012E
S1130630CA95F1F740E550E060E670E084E690E0AA
S11306400E94A80363E970E084E893E00E94FE013D
S113065090939200809391000097A1F3BC0183E9E9
S113066090E00E941E04882329F083E990E00E9410
S11306701A05E8CF609191007091920083E990E0AF
S11306800E9444048823F1F28091AA00813069F425
S11306909091B500983049F4609191007091920066
S11306A083E990E00E945605CDCF863059F68091BB
S11306B0B7008111C7CF8091B800803519F68091B9
S11306C0C20081FF05C083E990E00E947305BACFA0
S11306D084FFB8CF83E990E00E9498050E94BD058D
S11306E0EC01009749F48091C20080FFABCF83E90D
S11306F090E00E94DE05A6CF8C010D561F4F6BE6DD
S113070070E0C8010E944306892B19F01092180466
S11307100EC066E770E0C8010E944306892B21F0F1
S113072081E08093180403C082E080931804BE0122
S113073069567F4F42E050E08BE790E00E94350617
S1130740892B09F07FCF0E94E0020E94F8027ACF41
S1130750DC01509386004093850090E00BC0292F64
S113076030E0FB01E20FF31F4081F901E957FF4F2D
S113077040839F5F943098F390E00BC0292F30E0C2
S1130780FD01E20FF31F4081F901E557FF4F40835C
S11307909F5F963098F30895CF93FC019B014130FD
S11307A041F4CB010897A0E0B0E04196A11DB11D32
S11307B003C080E090E0DC014230E1F40696A11D24
S11307C0B11DA90148505109840F951FA11DB11DE8
S11307D011C0408150E060E070E0762F652F542F07
S11307E04427C1814C2B840F951FA61FB71F329637
S11307F0225031092230310560F7232B99F04081D2
S113080050E060E070E0762F652F542F4427840F6A
S1130810951FA61FB71F06C0AA27BB27840F951FC5
S1130820A61FB71FAD01662777274115510561053E
S1130830710591F780959095CF910895693271056E
S1130840D8F0FC0124852830C9F425852630C1F46C
S113085040E00EC0242F30E0F901B696E80FF91FEE
S11308605081F901E957FF4F208152130BC04F5FAC
S1130870443080F381E0089580E0089580E0089595
S113088080E0089580E00895FC016A327105E8F083
S113089084858830E1F4858581111BC09685953463
S11308A0C9F490E00EC0292F30E0D9015E96AE0F56
S11308B0BF1F4C91D901A957BF4F2C9142130AC0B5
S11308C09F5F943080F381E0089580E0089580E094
S11308D0089580E00895AC0190E011C0292F30E024
S11308E0DA01A20FB31FF9013696E40FF51F8081D8
S11308F08C93D901A557BF4F8C9180839F5F96300D
S113090068F30895CF93DF93EC01188E198E80E479
S11309108C8B1D8A8E8B40E064E170E0CE010E96D4
S11309200E94CC03988F898FDF91CF910895AC01F9
S113093090E012C0292F30E0D9015E96A40FB51FB4
S1130940F9017A96E40FF51F80818C93D901A95798
S1130950BF4F8C9180839F5F943060F3CA010E94E3
S113096082040895CF93DF93DC0192968C91929741
S113097094968C93949793968C91939795968C9345
S11309809597809185009091860092969C9392977A
S113099093968C93939784E016C0E82FF0E0EF01D0
S11309A0A596CA0FDB1F9881690F711DB996EA0FCE
S11309B0FB1F90816083222311F0988301C0188269
S11309C0672F772781508111E8CF211111C09696A6
S11309D01C92969797961C92979780916A00989686
S11309E08C93989799961C9299978E5F80936A003E
S11309F0D2961C92D297D3961C92D3974423A1F0FB
S1130A0082E0D6968C93D69784E0D7968C93D7972A
S1130A1085E0D8968C93D89780E8D9968C93D9970B
S1130A2080E69E968C9303C080E59E968C93DF911E
S1130A30CF910895CF93DF93EC010E946B041C8A3D
S1130A4082E08D8B20E012C0822F90E0DC01909632
S1130A50AC0FBD1FFC017696EC0FFD1F30813C935B
S1130A60DC01A557BF4F8C9180832F5F263060F344
S1130A7020E012C0822F90E0DC019696AC0FBD1FDF
S1130A80FC017C96EC0FFD1F30813C93DC01A957DF
S1130A90BF4F8C9180832F5F243060F3BE018AE2C4
S1130AA090E00E949D02DF91CF9108950F931F93D0
S1130AB0CF93DF93EC018B010E946B04CE010E9463
S1130AC097041AA28CA1883F18F09DA19F5F9DA353
S1130AD0885F8CA3BE01C8010E949D02DF91CF9163
S1130AE01F910F910895CF93DF93EC010E946B0443
S1130AF0188A8CE2898BCE010E94970482E18FA729
S1130B0020E041E061E070E0CE010E94B20442E0E6
S1130B1060E270E0CE014A960E94CC039AAB8BABA4
S1130B20BE018AE390E00E949D02DF91CF91089577
S1130B30FC01208930E0322F22278189282B24517F
S1130B40310986A582958F7090E0880F991F880FD0
S1130B50991F9093840080938300A901481B590B2B
S1130B60CA0150938200409381001816190624F09C
S1130B7010928200109281000895809181009091DA
S1130B808200892B31F080918300909184008296B9
S1130B90089580E090E00895FA0108C0DB01D6963C
S1130BA0A80FB91FEC936F5F7F4FF9019F012F5F6F
S1130BB03F4FE491E111F2CFCB010895CF93DF933E
S1130BC0EC010E946B0480E18FA760918100709119
S1130BD082006115710541F421E040E061E070E0BC
S1130BE0CE010E94B20405C021E040E0CE010E9483
S1130BF0B204188A88E2898BCE010E94970442E0ED
S1130C006CE170E0CE014A960E94CC039AAB8BABA8
S1130C10BE0186E390E00E949D02DF91CF9108958A
S1130C200F931F93CF93DF93EC018B0189E18FA77F
S1130C30CB018896988B898BCE010E9482041AAAD4
S1130C401BAAB801645E7F4F42E0CE014A960E941F
S1130C50CC039AAB8BABBE01C801C6960E949D0221
S1130C60DF91CF911F910F910895FB01DC01415059
S1130C70504030F08D910190801919F40020B9F79B
S1130C80881B990B0895FB0151915523A9F0BF01CD
S1130C90DC014D9145174111E1F759F4CD01019063
S1130CA0002049F04D9140154111C9F3FB01411158
S1110CB0EFCF81E090E001970895F894FFCF14
S1130CBEC0A800967469692D30310A557365722087
S1110CCE4167656E74004D534945002F2000A8
S9030000FC
