S00C00004C4142322E7372656317
S11300000C94B8000C94D5000C94D5000C94D50035
S11300100C94B9070C94D5000C94D5000C94D5001D
S11300200C94D5000C94D5060C94D5000C94D500F2
S11300300C94D5000C94D5000C94D5000C94D500E8
S11300400C9448060C94D5000C9444080C94D500E8
S11300500C946D080C94D5000C94D5000C94D50028
S11300600C94D5000C94D500D905DE05E305E8050C
S1130070ED05F205F70500407A10F35A00A0724E20
S113008018090010A5D4E80000E87648170000E439
S11300900B54020000CA9A3B000000E1F505000081
S11300A080969800000040420F000000A0860100E6
S11300B00000102700000000E803000000006400B6
S11300C0000000000A000000000001000000000021
S11300D02C76D888DC674F0823DFC1DFAE59E1B145
S11300E0B796E5E3E453C63AE651997696E8E6C254
S11300F08426EB898C9B62ED407C6FFCEFBC9C9F5B
S113010040F2BAA56FA5F490055A2AF75C936B6C7C
S1130110F9676DC11BFCE0E40D47FEF520E6B50070
S1130120D0ED902E0300943577050080841E0800DE
S113013000204E0A000000C80C333333330F986E8E
S113014012831141EF8D2114893BE65516CFFEE64B
S1130150DB18D1844B381BF77C1D901DA4BBE42411
S1130160203284725E228100C9F124ECA1E53D278E
S113017011241FBECFEFD8E0DEBFCDBF12E0A0E058
S1130180B1E0E2E3F0E202C005900D92A432B107BF
S1130190D9F722E0A4E2B2E001C01D92AB35B20768
S11301A0E1F70E94A3030C9417100C9400008AB189
S11301B080688AB98BB180688BB92FEF81EE94E0A7
S11301C0215080409040E1F700C0000008958F92D4
S11301D09F92AF92BF92CF92DF92EF92FF920F93D2
S11301E01F93CF93DF9300D000D01F92CDB7DEB71B
S11301F0FE01319685E0DF011D928A95E9F78AB107
S113020080688AB98BB18F778BB9BFEF20EE80E01D
S1130210B15020408040E1F700C000008BB18068FD
S11302208BB98AB18F778AB980E090E010C0AAE0D8
S1130230AA95F1F700C002968D33910540F08AB17A
S113024080688AB98BB180688BB981E0B7C04F9957
S1130250EECF80E090E010C0BAE0BA95F1F700C0AC
S113026002968536910540F08AB180688AB98BB1CF
S113027080688BB981E0A2C04F9BEECF80E090E014
S113028010C02AE02A95F1F700C002968536910540
S113029040F08AB180688AB98BB180688BB981E0FB
S11302A08DC04F99EECF60E024C04F9BFECFAAEBE8
S11302B0AA95F1F700C04F9B0CC047E050E0481BE3
S11302C0510921E030E002C0220F331F4A95E2F7C2
S11302D0922B4F99FECF8F5F02C090E080E0883070
S11302E020F3E1E0F0E0EC0FFD1FE60FF11D908339
S11302F06F5F653090F38AB180688AB98BB180688A
S11303008BB98981A82EB12C1A2D00274A8150E07F
S1130310042B152B8B81C82ED12CFC2DEE278C8120
S1130320E82EF12CEE29FF299801ADECBCEC0E94DB
S1130330C10A4C01969487949694879496948794D2
S113034080922C02C401880F991F880C991C880C78
S1130350991C880C991C880E991E08191909009378
S11303602B029F010E94C10A8C01169507951695D0
S113037007951695079500932A02C801880F991FBF
S1130380000F111F000F111F000F111F080F191F5D
S1130390E01BF10BE09329022D8120932802C50173
S11303A0840F951F8C0D9D1D8E0D9F1D992730E088
S11303B08217930711F083E001C080E00F900F9043
S11303C00F900F900F90DF91CF911F910F91FF909D
S11303D0EF90DF90CF90BF90AF909F908F90089553
S11303E0FF920F931F93CF93DF93CDB7DEB764973C
S11303F00FB6F894DEBF0FBECDBF182FF62E81E0E6
S11304000E940C0360E080E00E9491038FEF91E072
S11304100E94840361E080E00E949103809129029C
S11304201F928F931F921F9387E091E09F938F9366
S11304308E010F5F1F4F1F930F930E94FB0AC80189
S11304400E94840362E080E00E94910380912B0269
S11304501F928F931F92FF9287E191E09F938F9356
S11304601F930F930E94FB0AC8010E94840363E058
S113047080E00E9491038FEF91E00E9484032FEFAC
S113048087EA91E6215080409040E1F700C00000E7
S11304901092250210922402109227021092260232
S11304A00FB6F894DEBF0FBECDBF64960FB6F894B6
S11304B0DEBF0FBECDBFDF91CF911F910F91FF9093
S11304C00895682F20912A02809126029091270294
S11304D0820F911D90932702809326028091260219
S11304E09091270270E00E94850ACB010895682F3D
S11304F020912C028091240290912502820F911D5B
S113050090932502809324028091240290912502E5
S113051070E00E94850ACB01089582E18093B800BF
S1130520E9EBF0E0808181608083ECEBF0E0808196
S1130530846480831092BA00089584EA8093BC0096
S11305408091BC008823E4F78091B900887F8830CB
S113055011F480E0089581E0089584EA8093BC005A
S11305608091BC008823E4F78091B900887F8031B2
S113057011F480E0089581E0089580FD02C098E1BF
S113058001C090E48093BB0084E88093BC00809118
S1130590BC008823E4F78091B900887F981302C0D7
S11305A080E0089581E008958093BB0084E88093FF
S11305B0BC008091BC008823E4F78091B900887F57
S11305C0883211F081E0089580E0089584EC8093EE
S11305D0BC008091BC008823E4F78091B900887F37
S11305E0803519F48091BB0008958EE7089584E85E
S11305F08093BC008091BC008823E4F78091B9000B
S1130600887F883519F48091BB0008958EE708959A
S113061084E98093BC00089595B1907C95B995B117
S1130620282F2F73922B95B99BB1937F9BB99BB1C4
S113063082958F708C70892B8BB988B18E7F88B925
S113064088B18D7F88B985E38A95F1F7000088B178
S1130650826088B98FE891E00197F1F700C000004B
S1130660089584B18F6384B98AB18C608AB987B1E3
S1130670836087B98FE59AEE0197F1F700C0000017
S113068080E30E940C038FE090E40197F1F700C02F
S1130690000080E30E940C038FE891E00197F1F7DA
S11306A000C0000080E30E940C0388E30E940C0356
S11306B08CE00E940C0381E00E940C03089598B121
S11306C0916098B995B1907C95B995B1282F2F7305
S11306D0922B95B99BB1937F9BB99BB182958F70F7
S11306E08C70892B8BB988B18D7F88B985E38A9505
S11306F0F1F7000088B1826088B98FE891E0019732
S1130700F1F700C000000895CF93DF93EC0103C01C
S113071021960E945F0388818111FACFDF91CF91E6
S11307200895623031F0633031F0613031F090E09F
S113073005C094E103C094E501C090E4890F80688A
S11307400E940C030895CF93DF93CDB7DEB7AE9725
S11307500FB6F894DEBF0FBECDBF0E94AF060E9455
S11307608D020E94D7000E941F070E9431030E943D
S1130770F6040E9438060E94C4060E9400081092E3
S1130780310210923C0210923702789486E0E0E045
S1130790F1E0DE01999601900D928A95E1F70E94AD
S11307A011070E9418070E94AA060E94AC060E9424
S11307B0A60681E080933102C12CD12CE12CF12CCE
S11307C0812C912C5401612C10E0712C80913C02FD
S11307D0813009F4CBC00E94010688EC90E00E94AD
S11307E09206882339F00E94A6060E94F004811123
S11307F06394739425E0721243C0261590F01F5F32
S11308000E94E700E12EF12CC7010E9461026C01F5
S1130810C7010E9477027C010E944207612C712C5F
S11308202FC081E00E940C0360E080E00E949103ED
S113083086E291E00E94840361E080E00E949103DB
S11308408EE491E00E94840362E080E00E949103C0
S113085083E691E00E94840363E080E00E949103B8
S11308608FEF91E00E9484033FEF87EA91E63150D5
S113087080409040E1F700C00000612C10E0712C32
S11308801A30C8F43AC0E12FF0E0EE0FFF1FEE0F6C
S1130890FF1F21E030E02C0F3D1FE20FF31F2081EA
S11308A0318142815381C501B4010E947D084B010D
S11308B05C011F5F01C010E01A3028F320E030E033
S11308C040E251E4C501B4010E94E9084B015C0116
S11308D00E945A078E01075D1F4F22E030E045E079
S11308E050E0C501B4010E94DB0AB601C7010E94B1
S11308F0F00181E08093310210E080913302833073
S113090081F50E944F07BC0180E090E00E948A09B3
S113091020E030E048E652E40E94E908609338029F
S11309207093390280933A0290933B02E12FF0E0F6
S113093031978091380290913902A0913A02B09196
S11309403B02EE0FFF1FEE0FFF1F21E030E02C0FE4
S11309503D1FE20FF31F80839183A283B383109220
S11309603302CE0189960E94220830CF81E00E9492
S11309700C0360E080E00E94910386E291E00E9413
S1130980840361E080E00E94910389E791E00E9482
S1130990840362E080E00E9491038DE891E00E946C
S11309A08403809132020E945F0384E991E00E94F3
S11309B05F0363E080E00E9491038FEF91E00E9467
S11309C0840334E585E895E421E03150804090408B
S11309D02040D9F700C000C0000010923C02F6CEBF
S11309E099B1892F807496FD81E008958AB18F7B37
S11309F08AB90895CF930E949D02813019F40E9410
S1130A00080337C080ED0E94BD02813019F40E94B2
S1130A1008032FC080E00E94D402813019F40E94A0
S1130A20080327C00E94AD02813019F40E94080314
S1130A3020C081ED0E94BD028130B1F40E94080300
S1130A4018C0C63019F40E94F70202C00E94E602E0
S1130A508E3719F40E9408030CC0EC2FF0E0E35C1D
S1130A60FD4F8083CF5F01C0C0E0C73050F30E94C8
S1130A700803CF9108950E94FA04E4E4F2E0118699
S1130A8080E28087ADE3B2E08C91982F9F709063F1
S1130A909783807790E0959587959595879595951B
S1130AA0879595958795806386832AE32583119698
S1130AB08C911197982F9F7090639483807790E026
S1130AC0959587959595879595958795959587950A
S1130AD080638383228312968C91982F9F709063F6
S1130AE09183807390E095958795959587959595D5
S1130AF08795959587958063808308950E94FA046D
S1130B00EFE4F2E080E28387ADE3B2E016968C91E5
S1130B101697982F9F709063918782958F7080634A
S1130B20808780E3878382E386832FE2258315967B
S1130B308C911597982F9F7090639483807190E0A7
S1130B409595879595958795959587959595879589
S1130B5080638383228314968C91982F9F70906373
S1130B609183807390E09595879595958795959554
S1130B708795959587958063808308950E943B05AA
S1130B8084E492E00E94840308950E947E058FE429
S1130B9092E00E9484030895E09140028E2F90E039
S1130BA0FC013197E730F10538F5EC5CFF4F0C940C
S1130BB0BB0A82EA91E00E94840308958AEA91E0E4
S1130BC00E948403089582EB91E00E9484030895B7
S1130BD08BEB91E00E948403089586EC91E00E94DF
S1130BE08403089580ED91E00E948403089589EDC3
S1130BF091E00E948403089583EE91E00E948403AF
S1130C00089581E00E940C0360E080E00E9491035B
S1130C108CEE91E00E94840361E080E00E949103E5
S1130C200E94C50561E089E00E9491038FE991E08B
S1130C300E9484030E94CC0562E080E00E9491033C
S1130C400E94BE0584E991E00E94840363E080E091
S1130C500E9491038FEF91E00E9484032FEF81EEB5
S1130C6094E0215080409040E1F700C000000895D6
S1130C708AB180618AB914BC15BCEEE6F0E08081CB
S1130C808160808385E085BD16BC1092340208958E
S1130C901F920F920FB60F9211248F9380913402FA
S1130CA08F5F809334028F910F900FBE0F901F902F
S1130CB0189586B50895CF92DF92EF92FF92C09077
S1130CC03402D12CE12CF12C0E945906E82FAFEF0D
S1130CD0B0E0A70196010E94D00ADC01CB018E0F7F
S1130CE0911DA11DB11D880F991FAA1FBB1F880F3D
S1130CF0991FAA1FBB1F880F991FAA1FBB1F880F0C
S1130D00991FAA1FBB1FBC01CD01660F771F881F47
S1130D10991F660F771F881F991FFF90EF90DF9030
S1130D20CF900895CF93DF93EC010E945B0628EEE9
S1130D3033E040E050E00E94990A2C173D0710F080
S1130D4081E001C080E0DF91CF91089516BC10923C
S1130D503402089515BC089585E085BD0895A0E882
S1130D60B0E01C92E1E8F0E08081856080838081BE
S1130D708F7E80838081877F80838C918D7F8C930D
S1130D808C918E7F8C9308951092B000E0E7F0E090
S1130D9080818160808382E08093B1001092B200F0
S1130DA0109236021092350208951F920F920FB6D8
S1130DB00F9211248F939F93809135029091360264
S1130DC0019690933602809335029F918F910F90F4
S1130DD00FBE0F901F9018958091B2000895CF9385
S1130DE0DF936091350270913602EB01D695DC2FCA
S1130DF0CC27D795C7950E94EC06682F70E080E059
S1130E0090E00E948C0920E030E040E05FE30E9423
S1130E10180A0E945B09CE01860F971FDF91CF91BC
S1130E2008951092B200109236021092350208957D
S1130E301092B100089582E08093B100089587B1C3
S1130E40846087B987B1877F87B9E8E6F0E080815D
S1130E5082608083ECE6F0E0808188608083109279
S1130E60300210922F0210922E0210922D02109234
S1130E703302109238021092390210923A02109200
S1130E803B02089588B1846088B980E58A95F1F7BA
S1130E9088B18B7F88B981E0809333020895809173
S1130EA02D0290912E0220912F0230913002821B4C
S1130EB0930B0895CF92DF92EF92FF920F931F93BB
S1130EC0CF93DF93CDB7DEB764970FB6F894DEBF48
S1130ED00FBECDBF6B017C0181E00E940C0360E07A
S1130EE080E00E94910386E291E00E9484038E01D7
S1130EF00F5F1F4F22E030E045E050E0C701B6012C
S1130F000E94DB0A61E080E00E94910384E192E0A8
S1130F100E948403C8010E94840380E292E00E943C
S1130F20840362E080E00E94910385E991E00E94DD
S1130F30840363E080E00E9491038FEF91E00E94BC
S1130F4084032FEF8FE493EC215080409040E1F72D
S1130F5000C0000064960FB6F894DEBF0FBECDBF8C
S1130F60DF91CF911F910F91FF90EF90DF90CF9081
S1130F7008951F920F920FB60F9211242F933F934F
S1130F804F935F936F937F938F939F93AF93BF938D
S1130F90EF93FF93339B12C080913302813071F43D
S1130FA00E941B070E9411070E94EF0690933002D3
S1130FB080932F0282E08093330211C08091330228
S1130FC0823069F433990BC00E94EF0690932E028D
S1130FD080932D020E94180783E080933302FF91CF
S1130FE0EF91BF91AF919F918F917F916F915F919D
S1130FF04F913F912F910F900FBE0F901F90189516
S11310008AB182608AB98AB18E7F8AB9E1ECF0E054
S1131010808180688083808180648083808188600F
S11310208083808180618083E2ECF0E0808186604F
S113103080831092C50087E68093C400089580934E
S1131040C6000895209131022223D1F0109231027A
S113105020913702FC01E20FF11D2081222371F05F
S113106020913702FC01E20FF11D80810E941F08CC
S1131070809137028F5F8093370208951092370270
S113108008958091C60008951F920F920FB60F9293
S113109011242F933F934F935F936F937F938F9379
S11310A09F93AF93BF93EF93FF9381E080933C02B0
S11310B00E94410880933202FF91EF91BF91AF915A
S11310C09F918F917F916F915F914F913F912F915C
S11310D00F900FBE0F901F9018951F920F920FB68E
S11310E00F9211248F9381E0809331028F910F909E
S11310F00FBE0F901F9018955058BB27AA270E9427
S113110094080C94DE090E94D00938F00E94D70993
S113111020F039F49F3F19F426F40C94CD090EF411
S1131120E095E7FB0C94C709E92F0E94EF0958F3F7
S1131130BA17620773078407950720F079F4A6F5B8
S11311400C94110A0EF4E0950B2EBA2FA02D0B016E
S1131150B90190010C01CA01A0011124FF27591BF8
S113116099F0593F50F4503E68F11A16F040A22FFE
S1131170232F342F4427585FF3CF4695379527956F
S1131180A795F0405395C9F77EF41F16BA0B620B6E
S1131190730B840BBAF09150A1F0FF0FBB1F661FB5
S11311A0771F881FC2F70EC0BA0F621F731F841FF8
S11311B048F4879577956795B795F7959E3F08F01E
S11311C0B0CF9395880F08F09927EE0F97958795E0
S11311D008950E94FD080C94DE090E94D70958F076
S11311E00E94D00940F029F45F3F29F00C94C7090C
S11311F051110C94120A0C94CD090E94EF0968F362
S11312009923B1F3552391F3951B550BBB27AA27BB
S113121062177307840738F09F5F5F4F220F331FF5
S1131220441FAA1FA9F335D00E2E3AF0E0E832D0BD
S113123091505040E695001CCAF72BD0FE2F29D0C0
S1131240660F771F881FBB1F261737074807AB0792
S1131250B0E809F0BB0B802DBF01FF2793585F4F07
S11312603AF09E3F510578F00C94C7090C94120A89
S11312705F3FE4F3983ED4F3869577956795B795E9
S1131280F7959F5FC9F7880F911D9695879597F9F4
S11312900895E1E0660F771F881FBB1F621773076D
S11312A08407BA0720F0621B730B840BBA0BEE1F82
S11312B088F7E09508950E94F70988F09F5798F001
S11312C0B92F9927B751B0F0E1F0660F771F881F47
S11312D0991F1AF0BA95C9F714C0B13091F00E9461
S11312E0110AB1E008950C94110A672F782F88270A
S11312F0B85F39F0B93FCCF3869577956795B39588
S1131300D9F73EF490958095709561957F4F8F4FF6
S11313109F4F0895E89409C097FB3EF490958095FB
S1131320709561957F4F8F4F9F4F9923A9F0F92FA7
S113133096E9BB279395F695879577956795B79525
S1131340F111F8CFFAF4BB0F11F460FF1BC06F5F0B
S11313507F4F8F4F9F4F16C0882311F096E911C01D
S1131360772321F09EE8872F762F05C0662371F03E
S113137096E8862F70E060E02AF09A95660F771F52
S1131380881FDAF7880F9695879597F9089597F946
S11313909F6780E870E060E008959FEF80EC089517
S11313A000240A9416161706180609060895002440
S11313B00A9412161306140605060895092E0394BA
S11313C0000C11F4882352F0BB0F40F4BF2B11F42E
S11313D060FF04C06F5F7F4F8F4F9F4F089557FD8D
S11313E09058440F551F59F05F3F71F04795880F8F
S11313F097FB991F61F09F3F79F087950895121626
S113140013061406551FF2CF4695F1DF08C01616D1
S113141017061806991FF1CF869571056105089482
S11314200895E894BB2766277727CB0197F9089599
S11314300E942B0A0C94DE090E94D00938F00E9405
S1131440D70920F0952311F00C94C7090C94CD0909
S113145011240C94120A0E94EF0970F3959FC1F3B2
S1131460950F50E0551F629FF001729FBB27F00D4E
S1131470B11D639FAA27F00DB11DAA1F649F6627A3
S1131480B00DA11D661F829F2227B00DA11D621FF2
S1131490739FB00DA11D621F839FA00D611D221FAC
S11314A0749F3327A00D611D231F849F600D211D90
S11314B0822F762F6A2F11249F5750409AF0F1F013
S11314C088234AF0EE0FFF1FBB1F661F771F881F7C
S11314D091505040A9F79E3F510580F00C94C709E4
S11314E00C94120A5F3FE4F3983ED4F38695779503
S11314F06795B795F795E7959F5FC1F7FE2B880F22
S1131500911D9695879597F90895AA1BBB1B51E1E8
S113151007C0AA1FBB1FA617B70710F0A61BB70B5F
S1131520881F991F5A95A9F780959095BC01CD0104
S11315300895A1E21A2EAA1BBB1BFD010DC0AA1F10
S1131540BB1FEE1FFF1FA217B307E407F50720F028
S1131550A21BB30BE40BF50B661F771F881F991FA3
S11315601A9469F760957095809590959B01AC01EC
S1131570BD01CF010895EE0FFF1F0590F491E02DFA
S11315800994A29FB001B39FC001A39F700D811D58
S11315901124911DB29F700D811D1124911D089578
S11315A00E94C10AA59F900DB49F900DA49F800D29
S11315B0911D11240895EF920F931F93CF93DF93FE
S11315C0E80147FD02C034E001C034E1042E000C00
S11315D0550B57FF03C0519541955109E32E022F36
S11315E0242FAE010E94FE0CCE01DF91CF911F91FA
S11315F00F91EF900895AEE0B0E0E1E0FBE00C94D1
S1131600EE0F0D891E8986E08C831A8309838FEF80
S11316109FE79E838D83AE01475E5F4F6F89788D10
S1131620CE0101960E941D0BEF81F885E00FF11F9A
S113163010822E96E4E00C940A10ABE0B0E0E3E2F2
S1131640FBE00C94E00F6C017B018A01FC01178222
S11316501682838181FFCCC1CE0101963C01F60143
S11316609381F70193FD859193FF81917F018823F5
S113167009F4BAC1853239F493FD859193FF8191C0
S11316807F01853229F4B60190E00E94460FE7CF2E
S1131690912C212C312CFFE1F315D8F08B3279F009
S11316A038F4803279F08332A1F4232D20611DC0F7
S11316B08D3261F0803369F4232D216016C0832DAF
S11316C08260382EE32DE4603E2E2AC0F32DF860AC
S11316D01DC037FC2DC020ED280F2A3040F08E327B
S11316E0B9F436FC81C1232D2064322E19C036FE94
S11316F006C08AE0989E200D1124922E11C0EAE0C3
S11317002E9E200D1124222EF32DF0623F2E08C0B0
S11317108C3621F4832D8068382E02C0883641F43B
S1131720F70193FD859193FF81917F018111B3CFDF
S1131730982F9F7D9554933028F40C5F1F4F9FE39F
S113174099830DC0833631F0833771F0833509F006
S113175059C021C0F801808189830E5F1F4F8824FE
S11317608394912C530113C02801F2E04F0E511CB5
S1131770F801A080B18036FE03C0692D70E002C07C
S11317806FEF7FEFC5010E943B0F4C018201F32DE7
S1131790FF773F2E16C0280122E0420E511CF801AB
S11317A0A080B18036FE03C0692D70E002C06FEFE7
S11317B07FEFC5010E94300F4C01F32DF0683F2EDE
S11317C0820133FC1BC0822D90E088169906B0F488
S11317D0B60180E290E00E94460F2A94F4CFF5010E
S11317E037FC859137FE81915F01B60190E00E943C
S11317F0460F21102A9421E0821A91088114910441
S113180071F7E8C0843611F0893641F5F80137FEE6
S113181007C060817181828193810C5F1F4F08C072
S113182060817181072E000C880B990B0E5F1F4F8E
S1131830F32DFF763F2E97FF09C090958095709504
S113184061957F4F8F4F9F4FF0683F2E2AE030E025
S1131850A3010E94820F882E861845C0853731F473
S1131860232D2F7EB22E2AE030E025C0932D997FC0
S1131870B92E8F36C1F018F4883579F0B5C08037A9
S113188019F0883721F0B0C0E92FE061BE2EB4FE14
S11318900DC0FB2DF460BF2E09C034FE0AC0292FF1
S11318A02660B22E06C028E030E005C020E130E01A
S11318B002C020E132E0F801B7FE07C06081718107
S11318C0828193810C5F1F4F06C06081718180E02B
S11318D090E00E5F1F4FA3010E94820F882E86188E
S11318E0FB2DFF773F2E36FE0DC0232D2E7FA22E1B
S11318F0891458F434FE0BC032FC09C0832D8E7E4B
S1131900A82E05C0B82CA32C03C0B82C01C0B92C38
S1131910A4FE0FC0FE01E80DF11D8081803321F487
S11319209A2D997EA92E09C0A2FE06C0B394B39441
S113193004C08A2D867809F0B394A3FC11C0A0FEDC
S113194006C0B21488F4280C922C9B180EC0B21452
S113195060F4B60180E290E00E94460FB394F7CFA2
S1131960B21418F42B1802C0982C212CA4FE10C019
S1131970B60180E390E00E94460FA2FE17C0A1FCCE
S113198003C088E790E002C088E590E0B6010CC08F
S11319908A2D867859F0A1FE02C08BE201C080E254
S11319A0A7FC8DE2B60190E00E94460F891438F43A
S11319B0B60180E390E00E94460F9A94F7CF8A9490
S11319C0F301E80DF11D8081B60190E00E94460FFD
S11319D08110F5CF222009F442CEB60180E290E0D6
S11319E00E94460F2A94F6CFF6018681978102C0A1
S11319F08FEF9FEF2B96E2E10C94FC0FA9E0B0E08F
S1131A00E4E0FDE00C94E60F6A01122FB02E2BE304
S1131A10201720F0FF24F394F00E02C02CE3F22EE2
S1131A200F2D27E0AE014F5F5F4F0E94580EBC019F
S1131A304981842F8970813031F0E1FC06C0E0FED9
S1131A4006C090E205C09DE203C09BE201C090E0A5
S1131A505E2D507143FF3CC0911102C083E001C070
S1131A6084E0811718F4212F281B01C020E05111B4
S1131A700BC0F601822F30E2882319F03193815094
S1131A80FBCFC20ED11C20E0992329F0D6019C93F0
S1131A90F60131966F01C6010396E2FE0AC03EE4E8
S1131AA0D6013C9341E411964C93119712963C93C2
S1131AB006C03EE6F601308341E641833283FC01F1
S1131AC0322F40E2332309F442C041933150FACF1C
S1131AD042FF44C0911102C083E001C084E0811739
S1131AE018F4212F281B01C020E051110BC0F6016E
S1131AF0822F30E2882319F031938150FBCFC20E3C
S1131B00D11C20E0992329F0D6019C93F60131964B
S1131B106F01C6010396E2FE0BC039E4D6013C9383
S1131B203EE411963C93119736E412963C9307C019
S1131B3039E6F60130833EE6318336E63283FC0132
S1131B40322F40E2332319F041933150FBCFFC0193
S1131B50E20FF11D10828EEF9FEFA6C021E030E06E
S1131B60911102C020E030E0161617061CF4FB01A8
S1131B70319602C0E1E0F0E02E0F3F1FBB2021F0C0
S1131B80EB2DF0E0319602C0E0E0F0E02E0F3F1FB5
S1131B90E12FF0E02E173F071CF4121B212F01C088
S1131BA020E08E2D887159F4F601822F30E28823CB
S1131BB019F031938150FBCFC20ED11C20E0992340
S1131BC029F0D6019C93F60131966F0151110BC097
S1131BD0F601822F90E3882319F091938150FBCF73
S1131BE0C20ED11C20E00F2D060F9A81342F3071C4
S1131BF044FF03C0913309F40150101624F4093052
S1131C0018F008E001C001E0AB0177FF02C040E03A
S1131C1050E0FB01E41BF50BA1E0B0E0AC0FBD1FED
S1131C20EA0FFB1F8EE2A82E4B01801A91080B2DA0
S1131C3010E01195019511094F3FBFEF5B0721F4A7
S1131C40D601AC9211966D01641775072CF08416B9
S1131C50950614F4818101C080E341505109319605
S1131C60D60111967D014017510724F0D6018C93BB
S1131C706701E2CF6417750739F4963320F495337E
S1131C8019F4311101C081E3F6018083F701822F39
S1131C9090E2882319F091938150FBCFF701E20F72
S1131CA0F11D108280E090E02996ECE00C94021083
S1131CB0283008F027E03327DA01990F311D87FD1A
S1131CC0916000966105710539F432602E5F3D9391
S1131CD030E32A95E1F708959F3F30F0803871058D
S1131CE0610509F03C5F3C5F3D93913008F08068EA
S1131CF0911DDF93CF931F930F93FF92EF92192FB0
S1131D00987F9695E92F96959695E90FFF27E053CE
S1131D10FF4F99273327EE24FF24A701E7010590FD
S1131D200894079428F4360FE71EF81E491F511D26
S1131D30660F771F881F991F0694A1F705900794D3
S1131D4028F4E70EF81E491F561FC11D770F881F80
S1131D50991F661F0694A1F70590079428F4F80EBE
S1131D60491F561FC71FD11D880F991F661F771F54
S1131D700694A1F70590079420F4490F561FC71F36
S1131D80D81F990F661F771F881F0694A9F784919F
S1131D901095177041F0D695C79557954795F794C8
S1131DA0E7941A95C1F7E6E7F0E068941590159169
S1131DB035916591959105907FE27395E118F10A4B
S1131DC0430B560BC90BD009C0F7E10CF11E431F9E
S1131DD0561FC91FD01D7EF4703311F48A95E6CFC7
S1131DE0E894015030F0080F0AF40027021708F4B1
S1131DF0202F2395022F7A3328F079E37D932A95B7
S1131E00E9F710C07D932A9589F60694979567950E
S1131E10379517951794E118F10A430B560BC90B24
S1131E20D00998F023957E9173957A3308F070E386
S1131E307C932013B8F77E9170617D9330F0839585
S1131E4071E37D9370E32A95E1F71124EF90FF90FD
S1131E500F911F91CF91DF91992787FD9095089558
S1131E60FC010590615070400110D8F78095909561
S1131E708E0F9F1F0895FC01615070400190011066
S1131E80D8F7809590958E0F9F1F08950F931F93F9
S1131E90CF93DF93FB01238121FD03C08FEF9FEFDD
S1131EA02CC022FF16C046815781248135814217F8
S1131EB0530744F4A081B1819D012F5F3F4F3183CB
S1131EC020838C93268137812F5F3F4F378326836E
S1131ED014C08B01EC01FB010084F185E02D099510
S1131EE0892BE1F6D80116968D919C91179701964E
S1131EF017969C938E931697CE01DF91CF911F91E5
S1131F000F910895FA01AA27283051F1203181F167
S1131F10E8946F936E7F6E5F7F4F8F4F9F4FAF4FED
S1131F20B1E03ED0B4E03CD0670F781F891F9A1F00
S1131F30A11D680F791F8A1F911DA11D6A0F711DB4
S1131F40811D911DA11D20D009F468943F912AE0C0
S1131F50269F11243019305D3193DEF6CF010895A8
S1131F60462F4770405D4193B3E00FD0C9F7F6CFD9
S1131F70462F4F70405D4A3318F0495D31FD4052A1
S1131F80419302D0A9F7EACFB4E0A6959795879537
S1131F9077956795BA95C9F7009761057105089516
S1131FA09B01AC010A2E06945795479537952795C2
S1131FB0BA95C9F7620F731F841F951FA01D08955A
S1131FC02F923F924F925F926F927F928F929F9245
S1131FD0AF92BF92CF92DF92EF92FF920F931F9333
S1131FE0CF93DF93CDB7DEB7CA1BDB0B0FB6F894E4
S1131FF0DEBF0FBECDBF09942A88398848885F8424
S11320006E847D848C849B84AA84B984C884DF8094
S1132010EE80FD800C811B81AA81B981CE0FD11D78
S11320200FB6F894DEBF0FBECDBFED010895F8944E
S1052030FFCFDC
S1132032484F4C417373002054656D703A202564F7
S11320422C256420432E002048756D3A2025642CEB
S1132052256420252E002D2D2D2D2D2D2D2D2D2DBC
S11320622D2D2D2D2D2D2D2D2D2D2D2D2D2D2D2D9A
S11320722D2D2D2D2D2D2D2D2D2D2D2D2D002A2ABD
S11320822A2A426F7465204162696572746F2A2A32
S11320922A2A002A2A4573706572616E646F20438E
S11320A269657272652A2A2A002A2A2A4461746F8F
S11320B220526563696269646F2A2A2A0044617442
S11320C26F3A2000202020202020202020202020C1
S11320D2200053756E64617920004D6F6E646179DE
S11320E220005475657364617920005765646E65D8
S11320F27364617920005468757273646179200095
S11321024672696461792020005361747572646156
S1132112792000556E6B6E6F776E2000202D2D2D69
S11321222D2D2D2D2D2D2D2D2D2D2D2D2D2D2D2DD9
S11321322D2D2D2D2D2D2D2D2D2D2D2D2D2D2D2DC9
S11321422D2D2D002044697374616E63653A20005D
S107215220636D0095
S9030000FC
