S00C00004C4142322E7372656317
S11300000C9434000C9451000C9451000C94510045
S11300100C9451000C9451000C9451000C94510018
S11300200C9451000C941C010C9451000C9451003C
S11300300C9451000C9451000C9451000C945100F8
S11300400C94F6000C9451000C948B010C94510008
S11300500C94B4010C9451000C9451000C94510074
S11300600C9451000C94510011241FBECFEFD8E022
S1130070DEBFCDBF11E0A0E0B1E0EEEDF5E002C0DF
S113008005900D92A030B107D9F721E0A0E0B1E0CE
S113009001C01D92A730B207E1F70E94B6000C948C
S11300A0ED020C9400008AB180688AB98BB1806833
S11300B08BB92FEF81EE94E0215080409040E1F71E
S11300C000C00000089595B1907C95B995B1282F92
S11300D02F73922B95B99BB1937F9BB99BB182955A
S11300E08F708C70892B8BB988B18E7F88B988B159
S11300F08D7F88B985E38A95F1F7000088B1826025
S113010088B98FE891E00197F1F700C000000895E5
S113011084B18F6384B98AB18C608AB987B18360F2
S113012087B98FE59AEE0197F1F700C0000080E3EC
S11301300E9463008FE090E40197F1F700C0000093
S113014080E30E9463008FE891E00197F1F700C01B
S1130150000080E30E94630088E30E9463008CE057
S11301600E94630081E00E946300089587B1806368
S113017087B98AB180618AB90E9453000E945F01E5
S11301800E9488000E94E4000E9466010E94E80028
S11301900E940B01109200011092060110920501B9
S11301A0789480E20E9485010E9407010E94580110
S11301B086E391E08D329140D8F79BB180E18927A5
S11301C08BB90E945801F4CF8AB18F7B8AB9089504
S11301D014BC15BCEEE6F0E080818160808385B5B7
S11301E0856085BD16BC1092020108951F920F927E
S11301F00FB60F9211248F93809102018F5F809329
S113020002018F910F900FBE0F901F90189516BC8E
S11302101092020108951092B000E0E7F0E08081AE
S11302208160808382E08093B1001092B2001092CA
S113023004011092030108951F920F920FB60F92BA
S113024011248F939F93809103019091040101964F
S113025090930401809303019F918F910F900FBE9F
S11302600F901F9018958091B2000895CF93DF935B
S11302706091030170910401EB01D695DC2FCC272A
S1130280D795C7950E943301682F70E080E090E015
S11302900E94F40120E030E040E05FE30E9480022D
S11302A00E94C301CE01860F971FDF91CF9108955D
S11302B01092B2001092040110920301089587B1C4
S11302C0846087B987B1877F87B908958AB18260CE
S11302D08AB98AB18E7F8AB9E1ECF0E080818068C6
S11302E08083808180648083808188608083808132
S11302F080618083E2ECF0E08081866080831092EC
S1130300C50087E68093C40008958093C6000895CD
S11303108091C60008951F920F920FB60F92112478
S11303202F933F934F935F936F937F938F939F93F9
S1130330AF93BF93EF93FF9381E0809306010E94F4
S1130340880180930101FF91EF91BF91AF919F913B
S11303508F917F916F915F914F913F912F910F906A
S11303600FBE0F901F9018951F920F920FB60F9209
S113037011248F9381E0809300018F910F900FBE21
S11303800F901F9018950E945F0288F09F5798F075
S1130390B92F9927B751B0F0E1F0660F771F881F86
S11303A0991F1AF0BA95C9F714C0B13091F00E94A0
S11303B07902B1E008950C947902672F782F882789
S11303C0B85F39F0B93FCCF3869577956795B395C7
S11303D0D9F73EF490958095709561957F4F8F4F36
S11303E09F4F0895E89409C097FB3EF4909580953B
S11303F0709561957F4F8F4F9F4F9923A9F0F92FE7
S113040096E9BB279395F695879577956795B79564
S1130410F111F8CFFAF4BB0F11F460FF1BC06F5F4A
S11304207F4F8F4F9F4F16C0882311F096E911C05C
S1130430772321F09EE8872F762F05C0662371F07D
S113044096E8862F70E060E02AF09A95660F771F91
S1130450881FDAF7880F9695879597F9089597F985
S11304609F6780E870E060E008959FEF80EC089556
S113047000240A941616170618060906089500247F
S11304800A9412161306140605060895092E0394F9
S1130490000C11F4882352F0BB0F40F4BF2B11F46D
S11304A060FF04C06F5F7F4F8F4F9F4F089557FDCC
S11304B09058440F551F59F05F3F71F04795880FCE
S11304C097FB991F61F09F3F79F087950895121665
S11304D013061406551FF2CF4695F1DF08C0161611
S11304E017061806991FF1CF8695710561050894C2
S11304F00895E894BB2766277727CB0197F90895D9
S11305000E9493020C9446020E94380238F00E9422
S11305103F0220F0952311F00C942F020C94350225
S113052011240C947A020E94570270F3959FC1F330
S1130530950F50E0551F629FF001729FBB27F00D8D
S1130540B11D639FAA27F00DB11DAA1F649F6627E2
S1130550B00DA11D661F829F2227B00DA11D621F31
S1130560739FB00DA11D621F839FA00D611D221FEB
S1130570749F3327A00D611D231F849F600D211DCF
S1130580822F762F6A2F11249F5750409AF0F1F052
S113059088234AF0EE0FFF1FBB1F661F771F881FBB
S11305A091505040A9F79E3F510580F00C942F02C2
S11305B00C947A025F3FE4F3983ED4F386957795E2
S11305C06795B795F795E7959F5FC1F7FE2B880F61
S11105D0911D9695879597F90895F894FFCF9D
S9030000FC
