S00C00004C4142322E7372656317
S11300000C9434000C9451000C9451000C94510045
S11300100C9451000C9451000C9451000C94510018
S11300200C9451000C9451000C9451000C94510008
S11300300C9451000C9451000C9451000C945100F8
S11300400C9451000C9451000C9451000C945100E8
S11300500C9451000C9451000C9451000C945100D8
S11300600C9451000C94510011241FBECFEFD8E022
S1130070DEBFCDBF11E0A0E0B1E0E0E4F4E002C0F7
S113008005900D92A834B107D9F721E0A8E4B1E0B6
S113009001C01D92A938B207E1F70E94FA000C943E
S11300A01E020C9400008AB180688AB98BB1806802
S11300B08BB92FEF81EE94E0215080409040E1F71E
S11300C000C00000089595B1907C95B995B1282F92
S11300D02F73922B95B99BB1937F9BB99BB182955A
S11300E08F708C70892B8BB988B18E7F88B988B159
S11300F08D7F88B985E38A95F1F7000088B1826025
S113010088B98FE891E00197F1F700C000000895E5
S113011084B18F6384B98AB18C608AB987B18360F2
S113012087B98FE59AEE0197F1F700C0000080E3EC
S11301300E9463008FE090E40197F1F700C0000093
S113014080E30E9463008FE891E00197F1F700C01B
S1130150000080E30E94630088E30E9463008CE057
S11301600E94630081E00E946300089598B1916049
S113017098B995B1907C95B995B1282F2F73922B8E
S113018095B99BB1937F9BB99BB182958F708C700D
S1130190892B8BB988B18D7F88B985E38A95F1F76E
S11301A0000088B1826088B98FE891E00197F1F787
S11301B000C000000895CF93DF93EC0103C02196A3
S11301C00E94B60088818111FACFDF91CF91089502
S11301D0623031F0633031F0613031F090E005C0CD
S11301E094E103C094E501C090E4890F80680E9403
S11301F06300089587B1806387B98AB180618AB941
S11302000E9453000E949E010E9488000E949A014D
S11302100E94A50181E00E94630060E080E00E94EA
S1130220E80080E091E00E94DB0061E080E00E9451
S1130230E80081E291E00E94DB002FEF33E284EFDB
S113024090E02150304080409040D9F700C0000039
S11302508CE291E00E94D40181E291E00E94D401F9
S11302600E94F20181E00E94630060E080E00E944D
S1130270E80080E091E00E94DB0061E080E00E9401
S1130280E80089E491E00E94DB002FEF37EA81E681
S1130290215030408040E1F700C000000E949201EC
S11302A0892B19F581E291E00E94D4010E94F201A8
S11302B081E00E94630060E080E00E94E80080E04A
S11302C091E00E94DB0061E080E00E94E80089E4A4
S11302D091E00E94DB009FEF27EA31E69150204035
S11302E03040E1F700C0000095CF81E00E94630038
S11302F060E080E00E94E80080E091E00E94DB0082
S113030061E080E00E94E80082E491E00E94DB006A
S11303108FEF97EA21E6815090402040E1F700C03A
S1130320000078CF4E9B03C081E090E0089580E008
S113033090E008958AB18F7B8AB9089587B184606B
S113034087B987B1877F87B908958AB182608AB9EE
S11303508AB18E7F8AB9E1ECF0E080818860808385
S1130360808180618083E2ECF0E08081866080831C
S11303701092C50087E68093C4001092C0000895CF
S11303808091C00085FF03C081E090E0089580E083
S113039090E00895CF93C82F0E94C001892BE1F308
S11303A0C093C600CF910895CF93DF93EC0103C0AF
S11303B00E94CA01219688818111FACFDF91CF91E1
S11303C008958091C00088231CF481E090E0089592
S11303D080E090E008950E94E101892BE1F380918F
S11303E0C60008951092480180E4E9E4F1E0DF01D9
S11303F01D928A95E9F70E94EB018A3071F08D30E5
S113040061F0E0914801EF3340F491E09E0F909346
S11304104801F0E0E75BFE4F80838A3041F08D3085
S113042031F0909148019F3310F48F3421F7E0911B
S11304304801F0E0E75BFE4F10820895F894FFCF87
S11304402D2D2D2D2D2D2D2D2D2D2D2D2D2D2D2DD8
S11304502D2D2D2D2D2D2D2D2D2D2D2D2D2D2D2DC8
S11304600041542B4E414D453F0D0A0041542B4E43
S1130470414D453D54524153482042494E20310D8F
S10B04800A00686F6C610000C2
S9030000FC
