S00C00004C4142322E7372656317
S11300000C9434000C9451000C9451000C94510045
S11300100C94EC010C9451000C9451000C9451007C
S11300200C9451000C947F010C9451000C945100D9
S11300300C9451000C9451000C9451000C945100F8
S11300400C9457010C9451000C9455020C945100DB
S11300500C947E020C9451000C9451000C945100A9
S11300600C9451000C94510011241FBECFEFD8E022
S1130070DEBFCDBF11E0A0E0B1E0E2E7F7E002C0EF
S113008005900D92A235B107D9F721E0A2E5B1E0C0
S113009001C01D92A236B207E1F70E94FA000C9447
S11300A0B7030C9400008AB180688AB98BB1806868
S11300B08BB92FEF81EE94E0215080409040E1F71E
S11300C000C00000089595B1907C95B995B1282F92
S11300D02F73922B95B99BB1937F9BB99BB182955A
S11300E08F708C70892B8BB988B18E7F88B988B159
S11300F08D7F88B985E38A95F1F7000088B1826025
S113010088B98FE891E00197F1F700C000000895E5
S113011084B18F6384B98AB18C608AB987B18360F2
S113012087B98FE59AEE0197F1F700C0000080E3EC
S11301300E9463008FE090E40197F1F700C0000093
S113014080E30E9463008FE891E00197F1F700C01B
S1130150000080E30E94630088E30E9463008CE057
S11301600E94630081E00E946300089598B1916049
S113017098B995B1907C95B995B1282F2F73922B8E
S113018095B99BB1937F9BB99BB182958F708C700D
S1130190892B8BB988B18D7F88B985E38A95F1F76E
S11301A0000088B1826088B98FE891E00197F1F787
S11301B000C000000895CF93DF93EC0103C02196A3
S11301C00E94B60088818111FACFDF91CF91089502
S11301D0623031F0633031F0613031F090E005C0CD
S11301E094E103C094E501C090E4890F80680E9403
S11301F06300089587B1806387B98AB180618AB941
S11302000E9453000E94C9010E9488000E94450177
S11302100E9433020E9449010E946E01109256010D
S11302201092610110925C0178940E94BB010E94BB
S1130230C20181E00E94630060E080E00E94E80067
S113024080E091E00E94DB0061E080E00E94E80031
S113025088E291E00E94DB0062E080E00E94E80016
S11302608CE391E00E94DB0063E080E00E94E80000
S113027083E191E00E94DB000E9468010E946C010E
S11302809BB180E189278BB9FBCF8AB18F7B8AB977
S1130290089514BC15BCEEE6F0E080818160808393
S11302A085B5856085BD16BC1092590108951F92CD
S11302B00F920FB60F9211248F93809159018F5F83
S11302C0809359018F910F900FBE0F901F90189536
S11302D016BC10925901089515BC08951092B000EF
S11302E0E0E7F0E080818160808382E08093B10068
S11302F01092B20010925B0110925A0108951F925D
S11303000F920FB60F9211248F939F9380915A01ED
S113031090915B01019690935B0180935A019F91A8
S11303208F910F900FBE0F901F9018958091B2007F
S11303300895CF93DF9360915A0170915B01EB01B3
S1130340D695DC2FCC27D795C7950E949601682FA8
S113035070E080E090E00E94BE0220E030E040E0E7
S11303605FE30E9422030E948D02CE01860F971F35
S1130370DF91CF9108951092B20010925B01109218
S11303805A0108951092B100089582E08093B1005B
S1130390089587B1846087B987B1877F87B9E8E614
S11303A0F0E0808182608083ECE6F0E08081886008
S11303B080831092550110925401109253011092AF
S11303C052011092580110925D0110925E01109238
S11303D05F011092600108951F920F920FB60F9261
S11303E011242F933F934F935F936F937F938F9336
S11303F09F93AF93BF93EF93FF93339B12C080916E
S11304005801813071F40E94C5010E94BB010E9411
S11304109901909355018093540182E0809358018F
S113042011C080915801823069F433990BC00E9445
S1130430990190935301809352010E94C20183E079
S113044080935801FF91EF91BF91AF919F918F914C
S11304507F916F915F914F913F912F910F900FBEBC
S11304600F901F9018958AB182608AB98AB18E7FE5
S11304708AB9E1ECF0E080818068808380818064C7
S11304808083808188608083808180618083E2ECC6
S1130490F0E08081866080831092C50087E68093B7
S11304A0C40008958091C60008951F920F920FB65C
S11304B00F9211242F933F934F935F936F937F93E6
S11304C08F939F93AF93BF93EF93FF9381E08093B8
S11304D061010E94520280935701FF91EF91BF91F5
S11304E0AF919F918F917F916F915F914F913F91C8
S11304F02F910F900FBE0F901F9018951F920F927F
S11305000FB60F9211248F9381E0809356018F913F
S11305100F900FBE0F901F9018950E94010388F052
S11305209F5798F0B92F9927B751B0F0E1F0660FB3
S1130530771F881F991F1AF0BA95C9F714C0B130F4
S113054091F00E941B03B1E008950C941B03672FE4
S1130550782F8827B85F39F0B93FCCF38695779523
S11305606795B395D9F73EF490958095709561950C
S11305707F4F8F4F9F4F0895E89409C097FB3EF437
S113058090958095709561957F4F8F4F9F4F9923DC
S1130590A9F0F92F96E9BB279395F695879577955A
S11305A06795B795F111F8CFFAF4BB0F11F460FF1A
S11305B01BC06F5F7F4F8F4F9F4F16C0882311F072
S11305C096E911C0772321F09EE8872F762F05C086
S11305D0662371F096E8862F70E060E02AF09A9521
S11305E0660F771F881FDAF7880F9695879597F916
S11305F0089557FD9058440F551F59F05F3F71F00F
S11306004795880F97FB991F61F09F3F79F0879575
S11306100895121613061406551FF2CF4695F1DFFE
S113062008C0161617061806991FF1CF869571058E
S1130630610508940895E894BB2766277727CB01C2
S113064097F908950E9435030C94A6030E94980319
S113065038F00E949F0320F0952311F00C948F032F
S11306600C94950311240C941C030E94F90270F35A
S1130670959FC1F3950F50E0551F629FF001729F43
S1130680BB27F00DB11D639FAA27F00DB11DAA1F52
S1130690649F6627B00DA11D661F829F2227B00D9F
S11306A0A11D621F739FB00DA11D621F839FA00D2A
S11306B0611D221F749F3327A00D611D231F849F7A
S11306C0600D211D822F762F6A2F11249F575040D1
S11306D09AF0F1F088234AF0EE0FFF1FBB1F661F4C
S11306E0771F881F91505040A9F79E3F510580F015
S11306F00C948F030C941C035F3FE4F3983ED4F3F3
S1130700869577956795B795F795E7959F5FC1F7B8
S1130710FE2B880F911D9695879597F9089597F963
S11307209F6780E870E060E008959FEF80EC089593
S113073000240A94161617061806090608950024BC
S11307400A9412161306140605060895092E039436
S1130750000C11F4882352F0BB0F40F4BF2B11F4AA
S113076060FF04C06F5F7F4F8F4F9F4F0895F894D1
S1050770FFCFB5
S11307722D2D2D2D2D2D2D2D2D2D2D2D2D2D2D2DA3
S11307822D2D2D2D2D2D2D2D2D2D2D2D2D2D2D2D93
S11307922D2D2D2D2D2D2D002020202020205741C0
S11307A2495420464F52202020202000202020207F
S11307B22020202044415441202020202020202099
S10507C2000031
S9030000FC
