:100000000C9434000C9451000C9451000C94510049
:100010000C9451000C9451000C9451000C9451001C
:100020000C9451000C9451000C9451000C948A01D2
:100030000C9451000C9451000C9451000C945100FC
:100040000C9451000C9451000C9451000C945100EC
:100050000C9451000C9451000C9451000C945100DC
:100060000C9451000C94510011241FBECFEFD8E026
:10007000DEBFCDBF11E0A0E0B1E0ECE8F5E002C0EA
:1000800005900D92A230B107D9F721E0A2E0B1E0CE
:1000900001C01D92A333B207E1F70E9413010C9433
:1000A000C4020C9400000FB6F8940F9288B18260DD
:1000B00088B985E08A95F1F7000088B18D7F88B90D
:1000C0000F900FBE8FE891E00197F1F700C000009C
:1000D00008950FB6F8940F9295B1907C282F2F7346
:1000E000922B95B92BB1807C90E09595879595954D
:1000F00087959595879595958795922F937F892BD1
:100100008BB90E9453000F900FBE08950FB6F8945C
:100110000F9298B19E7F98B995E09A95F1F70000FB
:100120000E9469000F900FBE08950FB6F8940F92C9
:1001300098B1916098B995E09A95F1F700000E9406
:1001400069000F900FBE089584B18F6384B98AB19E
:100150008C608AB987B1836087B988B18C7F88B990
:100160002FEF83EF91E0215080409040E1F700C0F5
:10017000000088E30E9486008CE00E94860086E0F2
:100180000E94860081E00E9486008FE39FE1019734
:10019000F1F700C000000895CF93DF939C01FB01AD
:1001A000DC011196CD91DC911297D383C2838C81AF
:1001B0009D81958384838C819D81DC0113967C9342
:1001C0006E9312977D836C8331872087F90180813C
:1001D0008F5F8083DF91CF910895CF93DF93FC01F0
:1001E000A085B185C281D381848195819D838C83D3
:1001F000C481D581828193819B838A8311968D915D
:100200009C911297E817F90731F484819581129631
:100210009C938E931197118610868C9181508C93AC
:10022000DF91CF9108950E94A40088E40E94950078
:100230002FEF89E698E1215080409040E1F700C01F
:10024000000089E60E9495002FEF89E698E1215091
:1002500080409040E1F700C00000E7CF0F920FB65A
:10026000F8940F921F9211242F923F924F925F9217
:100270006F927F928F929F92AF92BF92CF92DF92B6
:10028000EF92FF920F931F932F933F934F935F93A0
:100290006F937F938F939F93AF93BF93CF93DF938E
:1002A000EF93FF93A0913101B09132010DB60D9201
:1002B0000EB60D920E94AC0181110E946802A091BD
:1002C0003101B0913201CD91CDBFDD91DEBFFF9103
:1002D000EF91DF91CF91BF91AF919F918F917F91DE
:1002E0006F915F914F913F912F911F910F91FF90CF
:1002F000EF90DF90CF90BF90AF909F908F907F90C6
:100300006F905F904F903F902F901F900F900FBE77
:100310000F9008950E942E011895E0910B01F09125
:100320000C018081811107C08FEF9FEF9093010135
:10033000809300010895E0910B01F0910C0105807C
:10034000F681E02D0680F781E02D828193819093E4
:100350000101809300010895DF92EF92FF920F93C5
:100360001F93CF93DF9380910201811199C08091F7
:10037000070190910801019690930801809307016D
:10038000E0900701F0900801E114F104B9F48091C4
:100390000B0190910C012091090130910A013093D9
:1003A0000C0120930B0190930A0180930901809125
:1003B00003018F5F809303010E948D0180910001F2
:1003C00090910101E816F90628F4D12C53C0DD24E0
:1003D000D39401C0D12CE0910B01F0910C018081EC
:1003E000811107C08FEF9FEF90930101809300016F
:1003F00041C0E0910B01F0910C010580F681E02DE8
:10040000C681D7818A819B81E816F90628F49093EA
:100410000101809300012EC08E010E5F1F4FC801A5
:100420000E94ED008C899D89892B21F0CE010C96CC
:100430000E94ED008E8990910601981710F4809328
:10044000060190E09C01220F331F220F331F220F61
:10045000331F820F931FB801835F9E4F0E94CC0011
:100460009E89E0913101F09132018689981708F058
:10047000AECFB1CFE0913101F0913201868990E0A9
:10048000FC01EE0FFF1FEE0FFF1FEE0FFF1F8E0F81
:100490009F1FFC01E35FFE4F8081823040F409C062
:1004A000809105018F5F80930501D12C02C0DD246E
:1004B000D39480910401882311F0DD24D3948D2DF1
:1004C000DF91CF911F910F91FF90EF90DF900895F2
:1004D00080910201882321F081E080930401089536
:1004E0001092040105C0809106018150809306019D
:1004F0008091060190E0FC01EE0FFF1FEE0FFF1F41
:10050000EE0FFF1F8E0F9F1FFC01E35FFE4F8081E8
:10051000882349F38091060190E09C01220F331F4C
:10052000220F331F220F331F280F391FD901A35F5A
:10053000BE4F1196ED91FC9112970280F381E02D50
:100540001296FC93EE931197205F3E4FE217F3074C
:1005500029F422813381FD0132832183FC01EE0FD6
:10056000FF1FEE0FFF1FEE0FFF1F8E0F9F1FFC01DF
:10057000E35FFE4F0180F281E02D868197819093A9
:0C0580003201809331010895F894FFCF00
:02058C00FFFF6F
:00000001FF
