:100000000C94B1000C94CE000C94CE000C94CE0055
:100010000C9498070C94CE000C94CE000C94CE0057
:100020000C94CE000C94B4060C94CE000C94CE002C
:100030000C94CE000C94CE000C94CE000C94CE0008
:100040000C943C060C94CE000C9480080C944C0844
:100050000C94CE000C94CE000C94CE000C94CE00E8
:100060000C94BD020C94CE0000407A10F35A00A00C
:10007000724E18090010A5D4E80000E87648170071
:1000800000E40B54020000CA9A3B000000E1F505B1
:10009000000080969800000040420F000000A086FB
:1000A00001000000102700000000E803000000002D
:1000B0006400000000000A000000000001000000D1
:1000C00000002C76D888DC674F0823DFC1DFAE59EB
:1000D000E1B1B796E5E3E453C63AE651997696E87E
:1000E000E6C28426EB898C9B62ED407C6FFCEFBC02
:1000F0009C9F40F2BAA56FA5F490055A2AF75C932D
:100100006B6CF9676DC11BFCE0E40D47FEF520E662
:10011000B500D0ED902E0300943577050080841E45
:10012000080000204E0A000000C80C333333330FA0
:10013000986E12831141EF8D2114893BE65516CF3D
:10014000FEE6DB18D1844B381BF77C1D901DA4BB49
:10015000E424203284725E228100C9F124ECA1E5FE
:100160003D2711241FBECFEFD8E0DEBFCDBF12E088
:10017000A0E0B1E0EEE8F0E202C005900D92A433F9
:10018000B107D9F722E0A4E3B2E001C01D92A13F7C
:10019000B207E1F70E9413040C9445100C94000080
:1001A0008AB180688AB98BB180688BB92FEF81EEF4
:1001B00094E0215080409040E1F700C00000089595
:1001C0008F929F92AF92BF92CF92DF92EF92FF9267
:1001D0000F931F93CF93DF9300D000D01F92CDB722
:1001E000DEB7FE01319685E0DF011D928A95E9F7C1
:1001F0008AB180688AB98BB18F778BB9BFEF20EE57
:1002000080E0B15020408040E1F700C000008BB199
:1002100080688BB98AB18F778AB980E090E010C08E
:10022000AAE0AA95F1F700C002968D33910540F03F
:100230008AB180688AB98BB180688BB981E0B7C018
:100240004F99EECF80E090E010C0BAE0BA95F1F798
:1002500000C002968536910540F08AB180688AB95F
:100260008BB180688BB981E0A2C04F9BEECF80E05C
:1002700090E010C02AE02A95F1F700C0029685367A
:10028000910540F08AB180688AB98BB180688BB9DA
:1002900081E08DC04F99EECF60E024C04F9BFECF30
:1002A000AAEBAA95F1F700C04F9B0CC047E050E0C5
:1002B000481B510921E030E002C0220F331F4A954C
:1002C000E2F7922B4F99FECF8F5F02C090E080E063
:1002D000883020F3E1E0F0E0EC0FFD1FE60FF11DA8
:1002E00090836F5F653090F38AB180688AB98BB173
:1002F00080688BB98981A82EB12C1A2D00274A81DC
:1003000050E0042B152B8B81C82ED12CFC2DEE2711
:100310008C81E82EF12CEE29FF299801ADECBCEC84
:100320000E94EF0A4C019694879496948794969431
:10033000879480923C02C401880F991F880C991CF5
:10034000880C991C880C991C880E991E081919098B
:1003500000933B029F010E94EF0A8C0116950795BE
:10036000169507951695079500933A02C801880FD0
:10037000991F000F111F000F111F000F111F080FF1
:10038000191FE01BF10BE09339022D8120933802F5
:10039000C501840F951F8C0D9D1D8E0D9F1D9927E6
:1003A00030E08217930711F083E001C080E00F90E6
:1003B0000F900F900F900F90DF91CF911F910F91A1
:1003C000FF90EF90DF90CF90BF90AF909F908F9075
:1003D0000895FF920F931F93CF93DF93CDB7DEB7AE
:1003E00064970FB6F894DEBF0FBECDBF182FF62E60
:1003F00081E00E947C0360E080E00E94010480E0D4
:1004000091E00E94F40361E080E00E940104809189
:1004100039021F928F931F921F9389E291E09F935D
:100420008F938E010F5F1F4F1F930F930E94290B15
:10043000C8010E94F40362E080E00E940104809100
:100440003B021F928F931F92FF9288E391E09F934C
:100450008F931F930F930E94290BC8010E94F403EE
:1004600063E080E00E94010484E191E00E94F403D3
:100470002FEF87EA91E6215080409040E1F700C0DD
:10048000000010923502109234021092370210923E
:1004900036020FB6F894DEBF0FBECDBF64960FB61E
:1004A000F894DEBF0FBECDBFDF91CF911F910F91AA
:1004B000FF900895682F20913A0280913602909122
:1004C0003702820F911D90933702809336028091FC
:1004D00036029091370270E00E94B90ACB0108956C
:1004E000682F20913C028091340290913502820F56
:1004F000911D909335028093340280913402909143
:10050000350270E00E94B90ACB0108951092B9003B
:1005100088E48093B80010923D02789408959091F9
:100520003D02911111C0EDE3F2E091E090838E7FE6
:10053000818373836283448315823783268385EAAC
:100540008093BC0080E0089581E0089590913D0281
:10055000911111C0EDE3F2E091E09083816081831D
:1005600073836283448315823783268385EA80936D
:10057000BC0080E0089581E008951F920F920FB6AD
:100580000F9211242F933F934F935F936F937F9319
:100590008F939F93AF93BF93EF93FF938091B90095
:1005A000887F8832D9F040F4803181F08831B1F011
:1005B000883009F082C00AC0803509F442C088350D
:1005C00009F45AC0803409F078C031C080913E02ED
:1005D0008093BB0085E88093BC007DC0EDE3F2E032
:1005E000958184819817A0F4DF010280F381E02DCA
:1005F00015968C91159791E0980F15969C93E80F9E
:10060000F11D80818093BB0085E88093BC0063C0AE
:1006100084E98093BC00EDE3F2E010820680F7816C
:10062000E02D40E060E070E080E0099554C08091EA
:100630004102823010F085EC01C085E88093BC0057
:100640004AC0EDE3F2E0A281B381858191E0980F89
:100650009583A80FB11D8091BB008C93258130E05C
:10066000848190E001972817390714F485EC01C0C4
:1006700085E88093BC002FC0ADE3B2E012966D9187
:100680007C91139715968C91159791E0980F15967C
:100690009C931597FB01E80FF11D8091BB008083AF
:1006A00084E98093BC001C921696ED91FC911797FB
:1006B00014964C9180E009950EC084E98093BC00AB
:1006C000EDE3F2E010820680F781E02D40E060E08B
:1006D00070E082E00995FF91EF91BF91AF919F91FA
:1006E0008F917F916F915F914F913F912F910F90DB
:1006F0000FBE0F901F90189595B1907C95B995B14C
:10070000282F2F73922B95B99BB1937F9BB99BB1E7
:1007100082958F708C70892B8BB988B18E7F88B948
:1007200088B18D7F88B985E38A95F1F7000088B19B
:10073000826088B98FE891E00197F1F700C000006E
:10074000089584B18F6384B98AB18C608AB987B106
:10075000836087B98FE59AEE0197F1F700C000003A
:1007600080E30E947C038FE090E40197F1F700C0E2
:10077000000080E30E947C038FE891E00197F1F78D
:1007800000C0000080E30E947C0388E30E947C0399
:100790008CE00E947C0381E00E947C03089598B164
:1007A000916098B995B1907C95B995B1282F2F7328
:1007B000922B95B99BB1937F9BB99BB182958F701A
:1007C0008C70892B8BB988B18D7F88B985E38A9528
:1007D000F1F7000088B1826088B98FE891E0019755
:1007E000F1F700C000000895CF93DF93EC0103C040
:1007F00021960E94CF0388818111FACFDF91CF919A
:100800000895623031F0633031F0613031F090E0C2
:1008100005C094E103C094E501C090E4890F8068AD
:100820000E947C030895CF93DF93CDB7DEB7C05805
:10083000D1090FB6F894DEBF0FBECDBF0E94D00025
:100840000E94FE060E94A1030E9488050E942C06B9
:100850000E94A3060E9486020E94DF07789481E02E
:100860000E947C030E9423060E94F0060E94F70665
:100870000E949E060E94A0060E949A06612C712C7E
:10088000412C512CC12CD12C7601312C10E0A12C03
:10089000B12CCE018F5B9F4F0E942C08882309F456
:1008A00048C022968FAD22978D3011F08A30A1F585
:1008B000BB2009F420C1E1E0F0E0EC0FFD1FEB0DDF
:1008C000F11D108281E00E947C0360E080E00E94C4
:1008D000010481E091E00E94F40361E080E00E9465
:1008E000010488E491E00E94F403CE0101960E9485
:1008F000F40363E080E00E94010484E191E00E943F
:10090000F4032FEF3FE483EC215030408040E1F7C7
:1009100000C00000B12CEFC09EE39B1508F4EAC0B4
:10092000E1E0F0E0EC0FFD1FEB0DF11D8083B394CF
:10093000E2C00E94230688EC90E00E94860688238D
:1009400039F00E949A060E94820581113394A39483
:1009500025E0A21245C02315A0F01F5F0E94E00011
:10096000812E912CC4010E945A02682E792EC40156
:100970000E947002482E592E0E942107312CA12C72
:100980002FC081E00E947C0360E080E00E940104AF
:1009900081E091E00E94F40361E080E00E940104A4
:1009A0008FE491E00E94F40362E080E00E94010481
:1009B00084E691E00E94F40363E080E00E94010479
:1009C00084E191E00E94F4033FEF87EA91E6315021
:1009D00080409040E1F700C00000312C10E0A12CD5
:1009E0001A30C8F452C0E12FF0E0EE0FFF1FEE0FF7
:1009F000FF1F22E430E02C0F3D1FE20FF31F208188
:100A0000318142815381C701B6010E94B1086B0157
:100A10007C011F5F01C010E01A3028F320E030E0B5
:100A200040E251E4C701B6010E941D096B017C013F
:100A30000E943907662D772D842D952D0E94E9019E
:100A40004E0137E7830E911C840122E045E0C70187
:100A5000B6010E94090B9F928F925F924F927F92F4
:100A60006F928AE791E09F938F930D5011091F9326
:100A70000F930E94290B6CE0C8010E94FA070FB681
:100A8000F894DEBF0FBECDBF10E08091CE02833060
:100A900091F50E942E07BC0180E090E00E94BE0903
:100AA00020E030E048E652E40E941D096093D20243
:100AB0007093D3028093D4029093D502E12FF0E09B
:100AC00031978091D2029091D302A091D402B0913B
:100AD000D502EE0FFF1FEE0FFF1F22E430E02C0FB8
:100AE0003D1FE20FF31F80839183A283B383109293
:100AF000CE0201C0B12C8FE39CE90197F1F700C051
:100B00000000C7CE99B1892F807496FD81E00895C9
:100B10008AB18F7B8AB90895811108C027E935E031
:100B200047E066ED72E081ED0E94A6020895CF9342
:100B3000DF93811185C0473009F082C0C6EDD2E055
:100B40008A81E8EEF2E0982F92959F709370905D05
:100B500090838F70805D81832AE322838981982F1F
:100B600092959F709770905D93838F70805D848362
:100B700025838881982F92959F709770905D9683BA
:100B80008F70805D878310868C81EDEDF2E0982F69
:100B900092959F709370905D90838F70805D81833C
:100BA0002FE222838D8184FB992790F9905D9383B6
:100BB0008F70805D8483258382E3868380E38783CF
:100BC0008E81982F92959F70905D90878F70805D39
:100BD0008187128681E00E947C0360E080E00E94B1
:100BE00001048EE091E00E94F40361E080E00E9445
:100BF00001048DED92E00E94F403CB818FEF8C0F06
:100C0000873070F481E392E00E94F403EC2FF0E06F
:100C1000EE0FFF1FEA5FFD4F808191810E94F40378
:100C200062E080E00E94010488EE92E00E94F403FA
:100C300063E080E00E9401048EE091E00E94F403F2
:100C4000DF91CF9108952CE835E041E065E472E052
:100C500080ED0E948F0208958AB180618AB914BC28
:100C600015BCEEE6F0E080818160808385E085BD83
:100C700016BC1092CF0208951F920F920FB60F92DA
:100C800011248F938091CF028F5F8093CF028F9139
:100C90000F900FBE0F901F90189586B50895CF92B4
:100CA000DF92EF92FF92C090CF02D12CE12CF12C79
:100CB0000E944D06E82FAFEFB0E0A70196010E9419
:100CC000FE0ADC01CB018E0F911DA11DB11D880F05
:100CD000991FAA1FBB1F880F991FAA1FBB1F880F30
:100CE000991FAA1FBB1F880F991FAA1FBB1FBC01FA
:100CF000CD01660F771F881F991F660F771F881F0A
:100D0000991FFF90EF90DF90CF900895CF93DF93DE
:100D1000EC010E944F0628EE33E040E050E00E94D4
:100D2000CD0A2C173D0710F081E001C080E0DF9173
:100D3000CF91089516BC1092CF02089515BC089566
:100D400085E085BD08951092B000E0E7F0E0808175
:100D50008160808382E08093B1001092B200109293
:100D6000D1021092D00208951F920F920FB60F92E7
:100D700011248F939F938091D0029091D10201967C
:100D80009093D1028093D0029F918F910F900FBECC
:100D90000F901F9018958091B2000895CF93DF9324
:100DA0006091D0027091D102EB01D695DC2FCC2757
:100DB000D795C7950E94CB06682F70E080E090E041
:100DC0000E94C00920E030E040E05FE30E944C0A4E
:100DD0000E948F09CE01860F971FDF91CF91089552
:100DE0001092B2001092D1021092D0020895109287
:100DF000B100089582E08093B100089587B18460C6
:100E000087B987B1877F87B9E8E6F0E080818260A3
:100E10008083ECE6F0E08081886080831092490254
:100E20001092480210924702109246021092CE028F
:100E30001092D2021092D3021092D4021092D502D4
:100E4000089588B1846088B980E58A95F1F788B102
:100E50008B7F88B981E08093CE020895809146020D
:100E6000909147022091480230914902821B930BD6
:100E70000895CF92DF92EF92FF920F931F93CF933B
:100E8000DF93CDB7DEB764970FB6F894DEBF0FBE21
:100E9000CDBF6B017C0181E00E947C0360E080E0BB
:100EA0000E94010481E091E00E94F4038E010F5F33
:100EB0001F4F22E030E045E050E0C701B6010E943C
:100EC000090B61E080E00E94010486E192E00E944B
:100ED000F403C8010E94F40382E292E00E94F4034A
:100EE00062E080E00E94010486E292E00E94F40346
:100EF00063E080E00E94010484E191E00E94F40339
:100F00002FEF8FE493EC215080409040E1F700C038
:100F1000000064960FB6F894DEBF0FBECDBFDF9120
:100F2000CF911F910F91FF90EF90DF90CF90089598
:100F30001F920F920FB60F9211242F933F934F934E
:100F40005F936F937F938F939F93AF93BF93EF9331
:100F5000FF93339B12C08091CE02813071F40E94C6
:100F6000FA060E94F0060E94CE06909349028093F2
:100F7000480282E08093CE0211C08091CE0282307E
:100F800069F433990BC00E94CE0690934702809378
:100F900046020E94F70683E08093CE02FF91EF9114
:100FA000BF91AF919F918F917F916F915F914F9181
:100FB0003F912F910F900FBE0F901F9018958AB1FF
:100FC00082608AB98AB18E7F8AB988E98093C1002C
:100FD00086E08093C2001092C50087E68093C4002B
:100FE00010928C0210928D0210924A0210924B02C3
:100FF00078940895CF93DF93DC0190E020C0209196
:101000008D0230E02F5F3F4F2F733078332334F45D
:1010100021503109206C3F6F2F5F3F4F40918C0270
:101020004217B1F0E0918D02F0E0ED01C90FD11D42
:101030003881E257FD4F308320938D029F5F9617D2
:10104000F0F2E1ECF0E080818062808381E001C019
:1010500080E0DF91CF910895DC0120914A029091C8
:101060004B022917B9F0E0914A02F0E0E45BFD4F32
:1010700080818C9380914A0290E001968F739078E2
:10108000992324F40197806C9F6F019680934A0204
:1010900081E0089580E008951F920F920FB60F929D
:1010A00011248F939F93EF93FF9390918C028091E3
:1010B0008D02981306C0E1ECF0E080818F7D808383
:1010C00016C0E0918C02F0E0E257FD4F80818093E2
:1010D000C60080918C0290E001968F7390789923DE
:1010E00024F40197806C9F6F019680938C02FF918E
:1010F000EF919F918F910F900FBE0F901F901895B9
:101100001F920F920FB60F9211242F933F938F933C
:101110009F93EF93FF9380914B0290E001968F7322
:101120009078992324F40197806C9F6F01963091F9
:10113000C60020914A02281741F0E0914B02F0E0EE
:10114000E45BFD4F308380934B02FF91EF919F91C1
:101150008F913F912F910F900FBE0F901F90189578
:101160005058BB27AA270E94C8080C94120A0E9454
:10117000040A38F00E940B0A20F039F49F3F19F45A
:1011800026F40C94010A0EF4E095E7FB0C94FB099D
:10119000E92F0E94230A58F3BA17620773078407DE
:1011A000950720F079F4A6F50C94450A0EF4E09525
:1011B0000B2EBA2FA02D0B01B90190010C01CA0111
:1011C000A0011124FF27591B99F0593F50F4503EBC
:1011D00068F11A16F040A22F232F342F4427585FAE
:1011E000F3CF469537952795A795F0405395C9F7C6
:1011F0007EF41F16BA0B620B730B840BBAF091507E
:10120000A1F0FF0FBB1F661F771F881FC2F70EC01C
:10121000BA0F621F731F841F48F4879577956795EF
:10122000B795F7959E3F08F0B0CF9395880F08F0DB
:101230009927EE0F9795879508950E9431090C9490
:10124000120A0E940B0A58F00E94040A40F029F486
:101250005F3F29F00C94FB0951110C94460A0C9441
:10126000010A0E94230A68F39923B1F3552391F3ED
:10127000951B550BBB27AA2762177307840738F005
:101280009F5F5F4F220F331F441FAA1FA9F335D062
:101290000E2E3AF0E0E832D091505040E695001C16
:1012A000CAF72BD0FE2F29D0660F771F881FBB1FD0
:1012B000261737074807AB07B0E809F0BB0B802DAE
:1012C000BF01FF2793585F4F3AF09E3F510578F0DA
:1012D0000C94FB090C94460A5F3FE4F3983ED4F368
:1012E000869577956795B795F7959F5FC9F7880FAE
:1012F000911D9695879597F90895E1E0660F771F00
:10130000881FBB1F621773078407BA0720F0621B90
:10131000730B840BBA0BEE1F88F7E09508950E94BB
:101320002B0A88F09F5798F0B92F9927B751B0F042
:10133000E1F0660F771F881F991F1AF0BA95C9F759
:1013400014C0B13091F00E94450AB1E008950C94A8
:10135000450A672F782F8827B85F39F0B93FCCF35B
:10136000869577956795B395D9F73EF490958095D6
:10137000709561957F4F8F4F9F4F0895E89409C0F6
:1013800097FB3EF490958095709561957F4F8F4FB8
:101390009F4F9923A9F0F92F96E9BB279395F695CE
:1013A000879577956795B795F111F8CFFAF4BB0F4C
:1013B00011F460FF1BC06F5F7F4F8F4F9F4F16C0B0
:1013C000882311F096E911C0772321F09EE8872F3A
:1013D000762F05C0662371F096E8862F70E060E0F6
:1013E0002AF09A95660F771F881FDAF7880F96956F
:1013F000879597F9089597F99F6780E870E060E016
:1014000008959FEF80EC089500240A94161617069D
:1014100018060906089500240A94121613061406E5
:1014200005060895092E0394000C11F4882352F048
:10143000BB0F40F4BF2B11F460FF04C06F5F7F4F00
:101440008F4F9F4F089557FD9058440F551F59F0E7
:101450005F3F71F04795880F97FB991F61F09F3FA1
:1014600079F087950895121613061406551FF2CFCA
:101470004695F1DF08C0161617061806991FF1CF1A
:1014800086957105610508940895E894BB27662741
:101490007727CB0197F908950E945F0A0C94120AEE
:1014A0000E94040A38F00E940B0A20F0952311F0E4
:1014B0000C94FB090C94010A11240C94460A0E9416
:1014C000230A70F3959FC1F3950F50E0551F629F5B
:1014D000F001729FBB27F00DB11D639FAA27F00D8D
:1014E000B11DAA1F649F6627B00DA11D661F829FB4
:1014F0002227B00DA11D621F739FB00DA11D621F99
:10150000839FA00D611D221F749F3327A00D611DB5
:10151000231F849F600D211D822F762F6A2F112497
:101520009F5750409AF0F1F088234AF0EE0FFF1FCA
:10153000BB1F661F771F881F91505040A9F79E3F21
:10154000510580F00C94FB090C94460A5F3FE4F3CC
:10155000983ED4F3869577956795B795F795E79577
:101560009F5FC1F7FE2B880F911D9695879597F980
:101570000895AA1BBB1B51E107C0AA1FBB1FA617DA
:10158000B70710F0A61BB70B881F991F5A95A9F72C
:1015900080959095BC01CD010895A1E21A2EAA1B59
:1015A000BB1BFD010DC0AA1FBB1FEE1FFF1FA21713
:1015B000B307E407F50720F0A21BB30BE40BF50B10
:1015C000661F771F881F991F1A9469F76095709599
:1015D000809590959B01AC01BD01CF010895A29F1C
:1015E000B001B39FC001A39F700D811D1124911DF7
:1015F000B29F700D811D1124911D08950E94EF0A64
:10160000A59F900DB49F900DA49F800D911D112456
:101610000895EF920F931F93CF93DF93E80147FD57
:1016200002C034E001C034E1042E000C550B57FF1A
:1016300003C0519541955109E32E022F242FAE018D
:101640000E942C0DCE01DF91CF911F910F91EF9051
:101650000895AEE0B0E0EFE2FBE00C941C100D89C1
:101660001E8986E08C831A8309838FEF9FE79E8310
:101670008D83AE01475E5F4F6F89788DCE010196F5
:101680000E944B0BEF81F885E00FF11F10822E9620
:10169000E4E00C943810ABE0B0E0E1E5FBE00C9442
:1016A0000E106C017B018A01FC0117821682838176
:1016B00081FFCCC1CE0101963C01F6019381F70177
:1016C00093FD859193FF81917F01882309F4BAC12D
:1016D000853239F493FD859193FF81917F018532A5
:1016E00029F4B60190E00E94740FE7CF912C212CD1
:1016F000312CFFE1F315D8F08B3279F038F48032D9
:1017000079F08332A1F4232D20611DC08D3261F068
:10171000803369F4232D216016C0832D8260382E1A
:10172000E32DE4603E2E2AC0F32DF8601DC037FC87
:101730002DC020ED280F2A3040F08E32B9F436FC4F
:1017400081C1232D2064322E19C036FE06C08AE0E6
:10175000989E200D1124922E11C0EAE02E9E200D9D
:101760001124222EF32DF0623F2E08C08C3621F476
:10177000832D8068382E02C0883641F4F70193FD2E
:10178000859193FF81917F018111B3CF982F9F7D28
:101790009554933028F40C5F1F4F9FE399830DC03D
:1017A000833631F0833771F0833509F059C021C099
:1017B000F801808189830E5F1F4F88248394912CC8
:1017C000530113C02801F2E04F0E511CF801A08014
:1017D000B18036FE03C0692D70E002C06FEF7FEF6D
:1017E000C5010E94690F4C018201F32DFF773F2E46
:1017F00016C0280122E0420E511CF801A080B180E1
:1018000036FE03C0692D70E002C06FEF7FEFC501A7
:101810000E945E0F4C01F32DF0683F2E820133FCD5
:101820001BC0822D90E088169906B0F4B60180E2C4
:1018300090E00E94740F2A94F4CFF50137FC859153
:1018400037FE81915F01B60190E00E94740F211074
:101850002A9421E0821A91088114910471F7E8C05A
:10186000843611F0893641F5F80137FE07C06081F2
:101870007181828193810C5F1F4F08C060817181EB
:10188000072E000C880B990B0E5F1F4FF32DFF7670
:101890003F2E97FF09C090958095709561957F4F79
:1018A0008F4F9F4FF0683F2E2AE030E0A3010E9447
:1018B000B00F882E861845C0853731F4232D2F7E32
:1018C000B22E2AE030E025C0932D997FB92E8F36B5
:1018D000C1F018F4883579F0B5C0803719F0883731
:1018E00021F0B0C0E92FE061BE2EB4FE0DC0FB2D8B
:1018F000F460BF2E09C034FE0AC0292F2660B22E24
:1019000006C028E030E005C020E130E002C020E160
:1019100032E0F801B7FE07C0608171818281938156
:101920000C5F1F4F06C06081718180E090E00E5F08
:101930001F4FA3010E94B00F882E8618FB2DFF7742
:101940003F2E36FE0DC0232D2E7FA22E891458F473
:1019500034FE0BC032FC09C0832D8E7EA82E05C03C
:10196000B82CA32C03C0B82C01C0B92CA4FE0FC006
:10197000FE01E80DF11D8081803321F49A2D997EBE
:10198000A92E09C0A2FE06C0B394B39404C08A2D48
:10199000867809F0B394A3FC11C0A0FE06C0B2146F
:1019A00088F4280C922C9B180EC0B21460F4B60177
:1019B00080E290E00E94740FB394F7CFB21418F451
:1019C0002B1802C0982C212CA4FE10C0B60180E375
:1019D00090E00E94740FA2FE17C0A1FC03C088E72C
:1019E00090E002C088E590E0B6010CC08A2D8678B0
:1019F00059F0A1FE02C08BE201C080E2A7FC8DE29B
:101A0000B60190E00E94740F891438F4B60180E3A7
:101A100090E00E94740F9A94F7CF8A94F301E80D36
:101A2000F11D8081B60190E00E94740F8110F5CF06
:101A3000222009F442CEB60180E290E00E94740FA9
:101A40002A94F6CFF6018681978102C08FEF9FEF2F
:101A50002B96E2E10C942A10A9E0B0E0E2E3FDE06D
:101A60000C9414106A01122FB02E2BE3201720F0D3
:101A7000FF24F394F00E02C02CE3F22E0F2D27E08A
:101A8000AE014F5F5F4F0E94860EBC014981842FDB
:101A90008970813031F0E1FC06C0E0FE06C090E2C2
:101AA00005C09DE203C09BE201C090E05E2D507135
:101AB00043FF3CC0911102C083E001C084E0811764
:101AC00018F4212F281B01C020E051110BC0F60192
:101AD000822F30E2882319F031938150FBCFC20E60
:101AE000D11C20E0992329F0D6019C93F601319670
:101AF0006F01C6010396E2FE0AC03EE4D6013C93A4
:101B000041E411964C93119712963C9306C03EE621
:101B1000F601308341E641833283FC01322F40E2FB
:101B2000332309F442C041933150FACF42FF44C0FD
:101B3000911102C083E001C084E0811718F4212FC5
:101B4000281B01C020E051110BC0F601822F30E2AA
:101B5000882319F031938150FBCFC20ED11C20E0B5
:101B6000992329F0D6019C93F60131966F01C601A5
:101B70000396E2FE0BC039E4D6013C933EE4119695
:101B80003C93119736E412963C9307C039E6F60170
:101B900030833EE6318336E63283FC01322F40E269
:101BA000332319F041933150FBCFFC01E20FF11DBB
:101BB00010828EEF9FEFA6C021E030E0911102C0AD
:101BC00020E030E0161617061CF4FB01319602C027
:101BD000E1E0F0E02E0F3F1FBB2021F0EB2DF0E005
:101BE000319602C0E0E0F0E02E0F3F1FE12FF0E061
:101BF0002E173F071CF4121B212F01C020E08E2D51
:101C0000887159F4F601822F30E2882319F031935C
:101C10008150FBCFC20ED11C20E0992329F0D601C0
:101C20009C93F60131966F0151110BC0F601822F82
:101C300090E3882319F091938150FBCFC20ED11C01
:101C400020E00F2D060F9A81342F307144FF03C01E
:101C5000913309F40150101624F4093018F008E00B
:101C600001C001E0AB0177FF02C040E050E0FB01A2
:101C7000E41BF50BA1E0B0E0AC0FBD1FEA0FFB1FAA
:101C80008EE2A82E4B01801A91080B2D10E01195C1
:101C9000019511094F3FBFEF5B0721F4D601AC92CC
:101CA00011966D01641775072CF08416950614F4CF
:101CB000818101C080E3415051093196D6011196CE
:101CC0007D014017510724F0D6018C936701E2CFC4
:101CD0006417750739F4963320F4953319F43111EC
:101CE00001C081E3F6018083F701822F90E288230F
:101CF00019F091938150FBCFF701E20FF11D108293
:101D000080E090E02996ECE00C943010283008F048
:101D100027E03327DA01990F311D87FD9160009686
:101D20006105710539F432602E5F3D9330E32A95E9
:101D3000E1F708959F3F30F080387105610509F0A3
:101D40003C5F3C5F3D93913008F08068911DDF93CC
:101D5000CF931F930F93FF92EF92192F987F969531
:101D6000E92F96959695E90FFF27EE53FF4F992798
:101D70003327EE24FF24A701E70105900894079478
:101D800028F4360FE71EF81E491F511D660F771FF6
:101D9000881F991F0694A1F70590079428F4E70E71
:101DA000F81E491F561FC11D770F881F991F661FF8
:101DB0000694A1F70590079428F4F80E491F561FC2
:101DC000C71FD11D880F991F661F771F0694A1F7A3
:101DD0000590079420F4490F561FC71FD81F990F6D
:101DE000661F771F881F0694A9F7849110951770B6
:101DF00041F0D695C79557954795F794E7941A956E
:101E0000C1F7E8E6F0E06894159015913591659179
:101E1000959105907FE27395E118F10A430B560BFB
:101E2000C90BD009C0F7E10CF11E431F561FC91F93
:101E3000D01D7EF4703311F48A95E6CFE8940150FA
:101E400030F0080F0AF40027021708F4202F23951A
:101E5000022F7A3328F079E37D932A95E9F710C0B1
:101E60007D932A9589F606949795679537951795EA
:101E70001794E118F10A430B560BC90BD00998F0DF
:101E800023957E9173957A3308F070E37C93201349
:101E9000B8F77E9170617D9330F0839571E37D9307
:101EA00070E32A95E1F71124EF90FF900F911F91B5
:101EB000CF91DF91992787FD90950895FC010590BA
:101EC000615070400110D8F7809590958E0F9F1F3C
:101ED0000895FC016150704001900110D8F7809581
:101EE00090958E0F9F1F08950F931F93CF93DF93AD
:101EF000FB01238121FD03C08FEF9FEF2CC022FF48
:101F000016C046815781248135814217530744F416
:101F1000A081B1819D012F5F3F4F318320838C933E
:101F2000268137812F5F3F4F3783268314C08B0173
:101F3000EC01FB010084F185E02D0995892BE1F688
:101F4000D80116968D919C911797019617969C93A0
:101F50008E931697CE01DF91CF911F910F91089527
:101F6000FA01AA27283051F1203181F1E8946F93CA
:101F70006E7F6E5F7F4F8F4F9F4FAF4FB1E03ED070
:101F8000B4E03CD0670F781F891F9A1FA11D680F0E
:101F9000791F8A1F911DA11D6A0F711D811D911D41
:101FA000A11D20D009F468943F912AE0269F1124B6
:101FB0003019305D3193DEF6CF010895462F47701A
:101FC000405D4193B3E00FD0C9F7F6CF462F4F7075
:101FD000405D4A3318F0495D31FD4052419302D0D3
:101FE000A9F7EACFB4E0A695979587957795679579
:101FF000BA95C9F700976105710508959B01AC0179
:102000000A2E06945795479537952795BA95C9F79F
:10201000620F731F841F951FA01D08952F923F927A
:102020004F925F926F927F928F929F92AF92BF92E8
:10203000CF92DF92EF92FF920F931F93CF93DF9394
:10204000CDB7DEB7CA1BDB0B0FB6F894DEBF0FBEF1
:10205000CDBF09942A88398848885F846E847D843E
:102060008C849B84AA84B984C884DF80EE80FD8040
:102070000C811B81AA81B981CE0FD11D0FB6F894B6
:0E208000DEBF0FBECDBFED010895F894FFCF77
:10208E002D2D2D2D2D2D2D2D2D2D2D2D2D2D2D2D72
:10209E002D2D2D2D2D2D2D2D2D2D2D2D2D2D2D2D62
:1020AE002D2D2D2D2D2D2D2D002048756D3A2025F1
:1020BE00642C256420432E002054656D703A202533
:1020CE00642C256420252E004461746F3A20002A6A
:1020DE002A2A2A426F7465204162696572746F2ADA
:1020EE002A2A2A002A2A4573706572616E646F204F
:1020FE004369657272652A2A2A0025755F25755F08
:10210E0025730053756E64617920004D6F6E6461A6
:10211E007920005475657364617920005765646E8B
:10212E0065736461792000546875727364617920F7
:10213E00004672696461792020005361747572647F
:10214E0061792000556E6B6E6F776E200053756E41
:10215E00646179004D6F6E646179005475657364C6
:10216E006179005765646E657364617900546875B2
:10217E0072736461790046726964617900536174A7
:10218E007572646179003202CD01D401DB01E30185
:10219E00ED01F601FD012044697374616E63653AC9
:1021AE00200020636D0020202020202020202020D1
:0421BE0020200000DD
:00000001FF
